:100000000C9434000C9446000C9446000C9446006A
:100010000C9446000C9446000C9446000C94460048
:100020000C9446000C9446000C9446000C94460038
:100030000C9446000C9446000C9446000C94460028
:100040000C9446000C9446000C9446000C94460018
:100050000C9446000C9446000C9446000C94460008
:100060000C9446000C94460011241FBECFEFD8E03C
:10007000DEBFCDBF21E0A0E0B1E001C01D92A630FF
:10008000B207E1F70E9484000C94D2010C940000A6
:1000900080E28093C00088ED8093C10086E0809369
:1000A000C20088E090E09093C5008093C40008955A
:1000B0009091C00095FFFCCF8093C6000895ECE7B7
:1000C000F0E080E4808380818F7D808384E880936A
:1000D0007A0008950E945F000E9448007894089575
:1000E00090917C008F70982B90937C0080917A0087
:1000F000806480937A0080917A0086FFFCCF8091A3
:1001000078009091790008950E946A0081E090E063
:100110000E947000BC0180E090E00E94D70020E0C7
:1001200030E040E859E30E943D0120E030E04FE735
:1001300053E40E943D010E94A100862F0E945800B6
:10014000E5CF0E94A8006894B1110C94370108957E
:100150000E941C0188F09F5798F0B92F9927B7513A
:10016000B0F0E1F0660F771F881F991F1AF0BA955B
:10017000C9F714C0B13091F00E943601B1E0089582
:100180000C943601672F782F8827B85F39F0B93F74
:10019000CCF3869577956795B395D9F73EF490950E
:1001A0008095709561957F4F8F4F9F4F0895E8948C
:1001B00009C097FB3EF490958095709561957F4FAF
:1001C0008F4F9F4F9923A9F0F92F96E9BB2793955D
:1001D000F695879577956795B795F111F8CFFAF46D
:1001E000BB0F11F460FF1BC06F5F7F4F8F4F9F4F9E
:1001F00016C0882311F096E911C0772321F09EE8FC
:10020000872F762F05C0662371F096E8862F70E061
:1002100060E02AF09A95660F771F881FDAF7880F3B
:100220009695879597F9089557FD9058440F551F57
:1002300059F05F3F71F04795880F97FB991F61F068
:100240009F3F79F087950895121613061406551FDF
:10025000F2CF4695F1DF08C0161617061806991F4B
:10026000F1CF86957105610508940895E894BB2740
:1002700066277727CB0197F908950E9450010C94C7
:10028000C1010E94B30138F00E94BA0120F0952309
:1002900011F00C94AA010C94B00111240C943701B4
:1002A0000E94140170F3959FC1F3950F50E0551F04
:1002B000629FF001729FBB27F00DB11D639FAA27BB
:1002C000F00DB11DAA1F649F6627B00DA11D661F0A
:1002D000829F2227B00DA11D621F739FB00DA11D2B
:1002E000621F839FA00D611D221F749F3327A00DE5
:1002F000611D231F849F600D211D822F762F6A2F81
:1003000011249F5750409AF0F1F088234AF0EE0FE5
:10031000FF1FBB1F661F771F881F91505040A9F712
:100320009E3F510580F00C94AA010C9437015F3F69
:10033000E4F3983ED4F3869577956795B795F7954E
:10034000E7959F5FC1F7FE2B880F911D96958795C6
:1003500097F9089597F99F6780E870E060E0089545
:100360009FEF80EC089500240A94161617061806CD
:100370000906089500240A941216130614060506A9
:100380000895092E0394000C11F4882352F0BB0F3A
:1003900040F4BF2B11F460FF04C06F5F7F4F8F4F9D
:0803A0009F4F0895F894FFCF70
:040000050080010472
:00000001FF
