:100000000C9434000C9446000C9446000C9446006A
:100010000C9446000C9446000C9446000C94460048
:100020000C9446000C9446000C9446000C944F002F
:100030000C9446000C9446000C9446000C94460028
:100040000C9446000C9446000C9446000C94460018
:100050000C9446000C9472000C9446000C944600DC
:100060000C9446000C94460011241FBECFEFD8E03C
:10007000DEBFCDBF21E0A0E0B1E001C01D92A830FD
:10008000B207E1F70E94BA000C94F0000C94000053
:1000900080E880937C0087E880937A0008951F921F
:1000A0000F920FB60F9211248F939F9380910301AB
:1000B000811111C09091020180917C00890F809381
:1000C0007C0080917A00806480937A0080917A002D
:1000D000886080937A009F918F910F900FBE0F9050
:1000E0001F9018951F920F920FB60F9211248F93A5
:1000F0009F93EF93FF938091780090917900909374
:10010000010180930001EAE7F0E08081877F80832E
:1001100081E080930301FF91EF919F918F910F9068
:100120000FBE0F901F90189580917C008560809382
:100130007C0080917A00806480937A0080917A00BC
:1001400084FFFCCF809178009091790008958BE036
:100150008093810081E68093890088EA80938800FB
:100160000895B19BFECFB19A089580E28AB981E0EB
:1001700084B9089578940E94B5000E9448000E94B6
:10018000A70080910301882341F0809102018F5FD5
:1001900085708093020110920301809102010E94F8
:1001A0009400909305018093040180910401909143
:1001B000050185B9809104019091050124E096958F
:1001C00087952A95E1F78BB92FEF81EE94E02150C6
:1001D00080409040E1F700C0000015B81BB8D1CFB7
:0401E000F894FFCFC1
:00000001FF
