:100000000C9434000C9451000C9451000C94510049
:100010000C9451000C9451000C9451000C9451001C
:100020000C9451000C9451000C9451000C9451000C
:100030000C9451000C9451000C9451000C945100FC
:100040000C9451000C9451000C9451000C945100EC
:100050000C9451000C9451000C9451000C945100DC
:100060000C9451000C94510011241FBECFEFD8E026
:10007000DEBFCDBF11E0A0E0B1E0E0E5F4E002C0FA
:1000800005900D92A231B107D9F721E0A2E1B1E0CC
:1000900001C01D92A132B207E1F70E9435010C9414
:1000A00026020C94000085B18FEF85B994B184B914
:1000B0000895109280008BE080938100109282005E
:1000C00084EC99E0909389008093880082E080938B
:1000D0006E00089580E680937C0087E880937A0024
:1000E0000895ECE7F0E090818170982B9083EAE727
:1000F000F0E08081806480830895282F64E60E9468
:100100001A02EBE1F1E09283828194E6899F201943
:100110001124822F6AE00E941A02918381819AE061
:10012000899F20191124208308958F708A3010F43C
:10013000805D08958F5B089580E28093C00088E120
:100140008093C10086E08093C2001092C50087E6CC
:100150008093C40008959091C00095FFFCCF8093D8
:10016000C600089585B1806385B984B1806384B980
:1001700082E08A95F1F700C02D9882E08A95F1F728
:1001800000C008952C9800C02D9800C008958823C1
:1001900011F02C9A01C02C98249A2D9A00C02D9809
:1001A00000C008952C9800C02D9A00C02C9A089584
:1001B00000C028E030E087FF02C02C9A01C02C98D4
:1001C0002D9A880F00C02D9800C02150310999F751
:1001D0002C9800C02D9A00C02D9808950C94D8003A
:1001E00000C0846088600C94D800CF93C82F0E9410
:1001F000C2008EE40E94D8008C2F0E94F0000E9462
:10020000D20082E08A95F1F700C0CF910895CF9394
:100210008150823018F5C42F81E20E94F00080E006
:100220000E94F00082E20E94F00080E00E94F00054
:1002300087E20E94F00080E00E94F0008FE20E94BE
:10024000F00080E00E94F0008FE80E94F00080E063
:100250000E94F0008C2FCF910C94F000CF91089564
:10026000862F00C00C94F00008950E9453000E9455
:1002700059000E946A000E949C002FEF80E792E0E4
:10028000215080409040E1F700C000000E94C20071
:100290008EE40E94D80000C080E20E94F0008FE34C
:1002A0009FE10197F1F700C0000080E20E94D800B2
:1002B00000C080E20E94F00080E20E94D80000C0EE
:1002C00080E00E94F0008FE39FE10197F1F700C00A
:1002D000000080E00E94D80000C080E00E94F00092
:1002E00080E00E94D8008FE39FE10197F1F700C002
:1002F000000000C080EE0E94F00080EE0E94D80056
:100300008FE39FE10197F1F700C0000000C080E09B
:100310000E94F00080E00E94D8008FE39FE10197E7
:10032000F1F700C0000000C080E60E94F00080E607
:100330000E94D8000E94D2000E94C2008EE40E9457
:10034000D80000C081E30E94F00081E30E94D80041
:1003500000C081E00E94F00081E00E94D80000C04F
:1003600081E30E94F00081E30E94D80000C081E197
:100370000E94F00081E10E94D80000C081E30E9449
:10038000F00081E30E94D80000C081E20E94F000EA
:1003900081E20E94D80000C081E30E94F00081E366
:1003A0000E94D80000C081E30E94F00081E30E9417
:1003B000D80000C081E30E94F00081E30E94D800D1
:1003C00000C081E40E94F00081E40E94D80000C0D7
:1003D00081E30E94F00081E30E94D80000C081E523
:1003E0000E94F00081E50E94D80000C081E30E94D5
:1003F000F00081E30E94D80000C081E60E94F00076
:1004000081E60E94D80000C081E30E94F00081E3F1
:100410000E94D80000C081E70E94F00081E70E949E
:10042000D8000E94D2008FE891E00197F1F700C058
:10043000000082CF991B79E004C0991F961708F03D
:10044000961B881F7A95C9F780950895F894FFCF79
:100450008000303132333435363738394142434405
:0204600045460F
:00000001FF
