:100000000C9434000C9451000C9451000C94510049
:100010000C9451000C9451000C9451000C9451001C
:100020000C9451000C9451000C9451000C9451000C
:100030000C9451000C9451000C9451000C945100FC
:100040000C9451000C9451000C9451000C945100EC
:100050000C9451000C9451000C9451000C945100DC
:100060000C9451000C94510011241FBECFEFD8E026
:10007000DEBFCDBF11E0A0E0B1E0ECE4F5E002C0EE
:1000800005900D92A231B107D9F721E0A2E1B1E0CC
:1000900001C01D92A132B207E1F70E945C010C94ED
:1000A000A4020C94000085B18FEF85B994B184B996
:1000B0000895109280008BE080938100109282005E
:1000C00084EC99E0909389008093880082E080938B
:1000D0006F00089580E680937C0087E880937A0023
:1000E0000895ECE7F0E090818170982B9083EAE727
:1000F000F0E08081806480830895282F64E60E9468
:100100009802EBE1F1E09283828194E6899F2019C5
:100110001124822F6AE00E949802918381819AE0E3
:10012000899F20191124208308958F708A3010F43C
:10013000805D08958F5B089580E28093C00088E120
:100140008093C10086E08093C2001092C50087E6CC
:100150008093C40008959091C00095FFFCCF8093D8
:10016000C600089585B1806385B984B1806384B980
:100170008AE18A95F1F700C02D988AE18A95F1F716
:1001800000C008952C9885E08A95F1F700002D981D
:1001900085E08A95F1F700000895882311F02C9AE4
:1001A00001C02C98249A2D9A85E08A95F1F70000D9
:1001B0002D9885E08A95F1F7000008952C9885E048
:1001C0008A95F1F700002D9A85E08A95F1F70000F5
:1001D0002C9A089595E09A95F1F7000028E030E018
:1001E00087FF02C02C9A01C02C982D9A880F95E0A9
:1001F0009A95F1F700002D9895E09A95F1F7000097
:100200002150310969F72C9885E08A95F1F70000B3
:100210002D9A95E09A95F1F700002D9808950C9489
:10022000EA0095E09A95F1F70000846088600C94EC
:10023000EA00CF93C82F0E94C2008EE40E94EA0019
:100240008C2F0E9411010E94DE008AE18A95F1F74D
:1002500000C0CF910895CF938150823018F5C42FFC
:1002600081E20E94110180E00E94110182E20E945D
:10027000110180E00E94110187E20E94110180E0DB
:100280000E9411018FE20E94110180E00E94110181
:100290008FE80E94110180E00E9411018C2FCF9104
:1002A0000C941101CF910895862F95E09A95F1F75E
:1002B00000000C94110108950E9453000E945900FF
:1002C0000E946A000E949C002FEF89E698E121506D
:1002D00080409040E1F700C000000E94C2008EE420
:1002E0000E94EA0025E02A95F1F7000080E20E94D2
:1002F00011018FEF99EF20E0815090402040E1F70D
:1003000000C0000080E20E94EA0085E08A95F1F7D3
:10031000000080E20E94110180E20E94EA0095E064
:100320009A95F1F7000080E00E9411012FEF89EF0C
:1003300090E0215080409040E1F700C0000080E054
:100340000E94EA0025E02A95F1F7000080E00E9473
:10035000110180E00E94EA008FEF99EF20E08150C8
:1003600090402040E1F700C0000085E08A95F1F759
:10037000000080EE0E94110180EE0E94EA009FEFD3
:1003800029EF80E0915020408040E1F700C000005C
:1003900095E09A95F1F7000080E00E94110180E05D
:1003A0000E94EA002FEF89EF90E0215080409040BA
:1003B000E1F700C0000025E02A95F1F7000080E693
:1003C0000E94110180E60E94EA000E94DE008FEF89
:1003D00099EF20E0815090402040E1F700C00000FC
:1003E0000E94C2008EE40E94EA0085E08A95F1F73F
:1003F000000081E30E94110181E30E94EA0095E080
:100400009A95F1F7000081E00E94110181E00E94BD
:10041000EA0025E02A95F1F7000081E30E9411012E
:1004200081E30E94EA0085E08A95F1F7000081E10E
:100430000E94110181E10E94EA0095E09A95F1F78E
:10044000000081E30E94110181E30E94EA0025E09F
:100450002A95F1F7000081E20E94110181E20E94D9
:10046000EA0085E08A95F1F7000081E30E9411011E
:1004700081E30E94EA0095E09A95F1F7000081E39C
:100480000E94110181E30E94EA0025E02A95F1F71C
:10049000000081E30E94110181E30E94EA0085E0EF
:1004A0008A95F1F7000081E40E94110181E40E9425
:1004B000EA0095E09A95F1F7000081E30E941101AE
:1004C00081E30E94EA0025E02A95F1F7000081E52A
:1004D0000E94110181E50E94EA0085E08A95F1F70A
:1004E000000081E30E94110181E30E94EA0095E08F
:1004F0009A95F1F7000081E60E94110181E60E94C1
:10050000EA0025E02A95F1F7000081E30E9411013D
:1005100081E30E94EA0085E08A95F1F7000081E717
:100520000E94110181E70E94EA000E94DE00FFCFD5
:10053000991B79E004C0991F961708F0961B881F35
:0C0540007A95C9F780950895F894FFCFD4
:10054C008000303132333435363738394142434408
:02055C00454612
:00000001FF
