:100000000C9472000C9484000C9484000C94840072
:100010000C9484000C9484000C9484000C94840050
:100020000C9484000C9484000C9484000C94840040
:100030000C9484000C9484000C9484000C94840030
:100040000C9484000C9425010C9484000C9484007E
:100050000C9484000C9484000C9484000C94840010
:100060000C9484000C9484000C9484000C94840000
:100070000C9484000C9484000C9484000C948400F0
:100080000C9484000C9484000C9484000C948400E0
:100090000C9484000C9484000C9484000C948400D0
:1000A0000C9484000C9484000C9484000C948400C0
:1000B0000C9484000C9484000C9484000C948400B0
:1000C0000C9484000C9484000C9484000C948400A0
:1000D0000C9484000C9484000C9484000C94840090
:1000E0000C94840011241FBECFEFD1E2DEBFCDBF40
:1000F00022E0A0E0B2E001C01D92A430B207E1F717
:100100000E943A010C94BA010C94000082E08BB971
:100110008FE08AB90895109280008BE0809381006F
:100120001092820084EC99E090938900809388007B
:1001300082E080936E00089580E680937C0087E8DB
:1001400080937A000895ECE7F0E090818170982B1D
:100150009083EAE7F0E080818064808308959EB117
:100160009F799EB995E09A95F1F70000769A95E00F
:100170009A95F1F700008BB985E08A95F1F70000B8
:10018000769808952FEF80E792E0215080409040CC
:10019000E1F700C000008CE30E94AF0087EC90E024
:1001A0000197F1F700C000008FE00E94AF0087ECDC
:1001B00090E00197F1F700C000008FE00C94AF00D1
:1001C000759A769895E09A95F1F70000769A95E001
:1001D0009A95F1F700008BB985E08A95F1F7000058
:1001E00076980895CF936F70813011F480E803C042
:1001F000823051F480EC860FC42F80580E94AF00EB
:100200008C2FCF910C94E000CF910895282F64E6B5
:100210000E94AE01E0E0F2E09283828194E6899F41
:1002200020191124822F6AE00E94AE0191838181FE
:100230009AE0899F20191124208308958F708A30B5
:1002400010F4805D08958F5B08951F920F920FB692
:100250000F9211248F9380910302882329F08091BB
:1002600003028150809303028F910F900FBE0F9075
:100270001F9018950E9486000E948B000E949C008F
:100280000E94C20080E80E94AF0081E40E94E0006A
:1002900081E80E94AF0084E40E94E00082E80E94AE
:1002A000AF0083E40E94E00083E80E94AF0081E396
:1002B0000E94E00084E80E94AF008AE30E94E00010
:1002C00089E80E94AF0088E20E94E0008AE80E946C
:1002D000AF0080E30E94E0008BE80E94AF0088E757
:1002E0000E94E0008DE80E94AF0089E20E94E000D9
:1002F000809103028111FCCF0E94A300C82F0E94AD
:10030000060186E80E94AF00809102020E941E0151
:100310000E94E00087E80E94AF00809101020E94E5
:100320001E010E94E00088E80E94AF008091000258
:100330000E941E010E94E0008CE80E94AF008C2FFA
:1003400082958F700E941E010E94E0008DE80E943D
:10035000AF008C2F8F700E941E01C8CF991B79E0CF
:1003600004C0991F961708F0961B881F7A95C9F745
:0803700080950895F894FFCF79
:00000001FF
