:100000000C9435000C945D000C945D000C945D0024
:100010000C945D000C945D000C945D000C945D00EC
:100020000C945D000C945D000C945D000C94220215
:100030000C945D000C945D000C945D000C945D00CC
:100040000C945D000C945D000C945D000C945D00BC
:100050000C945D000C945D000C945D000C945D00AC
:100060000C945D000C945D00510211241FBECFEF73
:10007000D8E0DEBFCDBF11E0A0E0B1E0E6EDF4E0F6
:1000800002C005900D92A231B107D9F721E0A2E19B
:10009000B1E001C01D92AE31B207E1F710E0C5E357
:1000A000D0E004C02197FE010E946302C433D1074F
:1000B000C9F70E9437020C9469020C9400008CE08E
:1000C00088B98FE087B914B80895109280008BE04A
:1000D000809381001092820084EC99E090938900D3
:1000E0008093880082E080936E00089580E680937C
:1000F0007C0087E880937A000895ECE7F0E0908137
:100100008170982B9083EAE7F0E08081806480839F
:100110000895282F64E60E945702E9E1F1E09283F6
:10012000828194E6899F20191124822F6AE00E941F
:100130005702918381819AE0899F2019112420839D
:1001400008958F708A3010F4805D08958F5B089554
:1001500080E28093C00088E18093C10086E08093B4
:10016000C2001092C50087E68093C4000895909164
:10017000C00095FFFCCF8093C600089588B18C60C5
:1001800088B987B18C6087B98AE18A95F1F700C098
:1001900042988AE18A95F1F700C0089543988AE170
:1001A0008A95F1F700C042988AE18A95F1F700C07C
:1001B0000895882311F0439A01C043983B9A429ACC
:1001C0008AE18A95F1F700C042988AE18A95F1F7B1
:1001D00000C008953B9A43988AE18A95F1F700C0E0
:1001E000429A8AE18A95F1F700C0439A089528E07F
:1001F00030E087FF02C0439A01C04398429A880FBB
:100200009AE19A95F1F700C042989AE19A95F1F730
:1002100000C02150310969F743983B988AE18A95DB
:10022000F1F700C0429A9AE19A95F1F700C0339B2A
:10023000FECF3B9A4298089528E030E087FF02C045
:10024000439A01C04398429A880F9AE19A95F1F730
:1002500000C042989AE19A95F1F700C02150310907
:1002600069F743983B988AE18A95F1F700C0429A72
:10027000339BFECF3B9A9AE19A95F1F700C04298E2
:100280008AE18A95F1F700C00895CF93C82F0E94A4
:10029000CE008EE40E94F7008C2F0E941C010E9469
:1002A000EA008AE18A95F1F700C0CF910895CF93D3
:1002B0008150823018F5C42F81E20E941C0180E039
:1002C0000E941C0182E20E941C0180E00E941C012D
:1002D00087E20E941C0180E00E941C018FE20E94C4
:1002E0001C0180E00E941C018FE80E941C0180E03C
:1002F0000E941C018C2FCF910C941C01CF9108956A
:1003000098E080E0880F429A2AE12A95F1F700C030
:100310003399816042982AE12A95F1F700C0915003
:1003200089F708951F93CF93DF93C82F162FD42FEB
:100330000E94CE008C2F0E941C01812F0E941C0164
:100340008D2F0E941C010E94EA008AE18A95F1F734
:1003500000C00E94CE0081E08C0F0E941C0180E052
:100360000E948001C82F81E00E94D9000E94EA000B
:100370008C2FDF91CF911F910895CF93DF93C82FDA
:100380000E94CE008C2F880F0E94F7002FEF80E78D
:1003900092E0215080409040E1F700C00000C0E0B2
:1003A000D0E08C2F0E941C012FEF80E792E02150BB
:1003B00080409040E1F700C000002196C11522E086
:1003C000D20779F788E80E941C018AE18A95F1F743
:1003D00000C086E00E941C019AE19A95F1F700C0E6
:1003E0000E94EA008FE39CE90197F1F700C000004A
:1003F000DF91CF91089584EA8093BC008091BC0086
:1004000087FFFCCF87E28093BB008091BC0087FF11
:10041000FCCF89E08093BB008091BC0087FFFCCFBC
:1004200084E88093BC008091BC0087FFFCCF82EE03
:100430008093BB008091BC0087FFFCCF84E8809351
:10044000BC0008951F920F920FB60F9211248F9344
:1004500080911C01882329F080911C018150809398
:100460001C018F910F900FBE0F901F9018950E9446
:100470005F000E9465000E9476000E94A80020E8AC
:1004800040E062E087E20E94BD012FEF81EE94E040
:10049000215080409040E1F700C0000080E090E0F3
:1004A00008958091B9008C7F80931D010895991B58
:1004B00079E004C0991F961708F0961B881F7A955B
:1004C000C9F780950895EE0FFF1F0590F491E02D78
:0604D0000994F894FFCF2F
:1004D600800030313233343536373839414243447F
:0204E600454689
:00000001FF
