:100000000C9435000C945D000C945D000C945D0024
:100010000C945D000C945D000C945D000C945D00EC
:100020000C945D000C945D000C945D000C945D00DC
:100030000C945D000C945D000C945D000C945D00CC
:100040000C945D000C945D000C945D000C945D00BC
:100050000C945D000C945D000C945D000C945D00AC
:100060000C945D000C945D00A20211241FBECFEF22
:10007000D8E0DEBFCDBF11E0A0E0B1E0E8E7F5E0F9
:1000800002C005900D92A231B107D9F721E0A2E19B
:10009000B1E001C01D92A232B207E1F710E0C5E362
:1000A000D0E004C02197FE010E94B402C433D107FE
:1000B000C9F70E9469010C94BA020C9400008BB13C
:1000C0008FEF8BB99AB18AB914B808951092800055
:1000D0008BE0809381001092820084EC99E09093F1
:1000E00089008093880082E080936E00089580E606
:1000F00080937C0087E880937A000895ECE7F0E035
:1001000090818170982B9083EAE7F0E08081806491
:1001100080830895282F64E60E94A802EDE1F1E0B3
:100120009283828194E6899F20191124822F6AE0AC
:100130000E94A802918381819AE0899F201911244D
:10014000208308958F708A3010F4805D08958F5B4E
:10015000089580E28093C00088E18093C10086E02A
:100160008093C2001092C50087E68093C400089572
:100170009091C00095FFFCCF8093C60008958BB18D
:100180008C608BB98AB18C608AB98AE18A95F1F763
:1001900000C05B988AE18A95F1F700C008955A98EB
:1001A00085E08A95F1F700005B9885E08A95F1F784
:1001B00000000895882311F05A9A01C05A98529A63
:1001C0005B9A85E08A95F1F700005B9885E08A9557
:1001D000F1F7000008955A9885E08A95F1F700003C
:1001E0005B9A85E08A95F1F700005A9A089595E0A8
:1001F0009A95F1F7000028E030E087FF02C05A9A94
:1002000001C05A985B9A880F95E09A95F1F7000023
:100210005B9895E09A95F1F700002150310969F754
:100220005A9885E08A95F1F700005B9A95E09A95D7
:10023000F1F700005B9808950C94F70095E09A950B
:10024000F1F70000846088600C94F700CF93C82F0A
:100250000E94CF008EE40E94F7008C2F0E941E01A6
:100260000E94EB008AE18A95F1F700C0CF910895D2
:10027000CF938150823018F5C42F81E20E941E0175
:1002800080E00E941E0182E20E941E0180E00E9426
:100290001E0187E20E941E0180E00E941E018FE283
:1002A0000E941E0180E00E941E018FE80E941E0134
:1002B00080E00E941E018C2FCF910C941E01CF91E3
:1002C0000895862F95E09A95F1F700000C941E0191
:1002D00008950E945F000E9466000E9477000E94BD
:1002E000A9002FEF89E698E1215080409040E1F786
:1002F00000C000000E94CF008EE40E94F70025E0BD
:100300002A95F1F7000080E20E941E018FEF99EF1D
:1003100020E0815090402040E1F700C0000080E2E2
:100320000E94F70085E08A95F1F7000080E20E94C4
:100330001E0180E20E94F70095E09A95F1F7000017
:1003400080E00E941E012FEF89EF90E02150804055
:100350009040E1F700C0000080E00E94F70025E037
:100360002A95F1F7000080E00E941E0180E00E94C3
:10037000F7008FEF99EF20E0815090402040E1F7A7
:1003800000C0000085E08A95F1F7000080EE0E9431
:100390001E0180EE0E94F7009FEF29EF80E0915050
:1003A00020408040E1F700C0000095E09A95F1F709
:1003B000000080E00E941E0180E00E94F7002FEF05
:1003C00089EF90E0215080409040E1F700C00000AC
:1003D00025E02A95F1F7000080E60E941E0180E6E4
:1003E0000E94F7000E94EB000E94CF008EE40E9462
:1003F000F70085E08A95F1F7000081E30E941E0175
:1004000081E30E94F70095E09A95F1F7000081E002
:100410000E941E0181E00E94F70025E02A95F1F775
:10042000000081E30E941E0181E30E94F70085E045
:100430008A95F1F7000081E10E941E0181E10E948E
:10044000F70095E09A95F1F7000081E30E941E0104
:1004500081E30E94F70025E02A95F1F7000081E290
:100460000E941E0181E20E94F70085E08A95F1F763
:10047000000081E30E941E0181E30E94F70095E0E5
:100480009A95F1F7000081E30E941E0181E30E942A
:10049000F70025E02A95F1F7000081E30E941E0194
:1004A00081E30E94F70085E08A95F1F7000081E47E
:1004B0000E941E0181E40E94F70095E09A95F1F7F1
:1004C000000081E30E941E0181E30E94F70025E005
:1004D0002A95F1F7000081E50E941E0181E50E9446
:1004E000F70085E08A95F1F7000081E30E941E0184
:1004F00081E30E94F70095E09A95F1F7000081E60C
:100500000E941E0181E60E94F70025E02A95F1F77E
:10051000000081E30E941E0181E30E94F70085E054
:100520008A95F1F7000081E70E941E0181E70E9491
:10053000F7000E94EB008FE99FE00197F1F700C000
:10054000000052CF8091B9008C7F809321010895E3
:10055000991B79E004C0991F961708F0961B881F15
:100560007A95C9F780950895EE0FFF1F0590F491D5
:08057000E02D0994F894FFCF7F
:1005780080003031323334353637383941424344DC
:020588004546E6
:00000001FF
