:100000000C9435000C945D000C945D000C945D0024
:100010000C945D000C945D000C945D000C945D00EC
:100020000C945D000C945D000C945D000C945D00DC
:100030000C945D000C945D000C945D000C945D00CC
:100040000C945D000C945D000C945D000C945D00BC
:100050000C945D000C945D000C945D000C945D00AC
:100060000C945D000C945D000F0211241FBECFEFB5
:10007000D8E0DEBFCDBF11E0A0E0B1E0E2E5F4E002
:1000800002C005900D92A231B107D9F721E0A2E19B
:10009000B1E001C01D92A232B207E1F710E0C5E362
:1000A000D0E004C02197FE010E942102C433D10791
:1000B000C9F70E9467010C9427020C9400008FEF8F
:1000C00088B987B914B80895109280008BE08093A6
:1000D00081001092820084EC99E0909389008093D3
:1000E000880082E080936E00089580E680937C0013
:1000F00087E880937A000895ECE7F0E090818170C2
:10010000982B9083EAE7F0E08081806480830895F3
:10011000282F64E60E941502EDE1F1E092838281CE
:1001200094E6899F20191124822F6AE00E9415020B
:10013000918381819AE0899F201911242083089559
:100140008F708A3010F4805D08958F5B089580E28F
:100150008093C00088E18093C10086E08093C20054
:100160001092C50087E68093C40008959091C00066
:1001700095FFFCCF8093C600089588B1806388B94D
:1001800087B1806387B98AE18A95F1F700C0449806
:100190008AE18A95F1F700C00895459885E08A952F
:1001A000F1F70000449885E08A95F1F70000089582
:1001B000882311F0459A01C045983D9A449A85E0FC
:1001C0008A95F1F70000449885E08A95F1F70000E0
:1001D0000895459885E08A95F1F70000449A85E0F6
:1001E0008A95F1F70000459A089595E09A95F1F700
:1001F000000028E030E087FF02C0459A01C0459822
:10020000449A880F95E09A95F1F70000449895E09C
:100210009A95F1F700002150310969F7459885E07A
:100220008A95F1F70000449A95E09A95F1F700005D
:10023000449808950C94F50095E09A95F1F7000024
:10024000846088600C94F500CF93C82F0E94CD0085
:100250008EE40E94F5008C2F0E941C010E94E90090
:100260008AE18A95F1F700C0CF910895CF9381502C
:10027000823018F5C42F81E20E941C0180E00E94A8
:100280001C0182E20E941C0180E00E941C0187E2A6
:100290000E941C0180E00E941C018FE20E941C0150
:1002A00080E00E941C018FE80E941C0180E00E94F7
:1002B0001C018C2FCF910C941C01CF910895862F97
:1002C00095E09A95F1F700000C941C0108950E94A6
:1002D0005F000E9464000E9475000E94A7000E94B7
:1002E000CD008EE40E94F50085E08A95F1F70000CC
:1002F00080E20E941C0180E20E94F50085E08A9560
:10030000F1F7000080E20E941C0180E20E94F500EB
:1003100085E08A95F1F7000080E00E941C0180E0F2
:100320000E94F50085E08A95F1F7000080E00E94C8
:100330001C0180E00E94F50085E08A95F1F700003D
:1003400080EE0E941C0180EE0E94F50085E08A95F7
:10035000F1F7000080E00E941C0180E00E94F5009F
:1003600085E08A95F1F7000080E60E941C0180E696
:100370000E94F50085E08A95F1F7000081E30E9474
:100380001C0181E30E94F50085E08A95F1F70000E9
:1003900081E00E941C0181E00E94F50085E08A95C1
:1003A000F1F7000081E30E941C0181E30E94F50047
:1003B00085E08A95F1F7000081E10E941C0181E14E
:1003C0000E94F50085E08A95F1F7000081E30E9424
:1003D0001C0181E30E94F50085E08A95F1F7000099
:1003E00081E20E941C0181E20E94F50085E08A956D
:1003F000F1F7000081E30E941C0181E30E94F500F7
:1004000085E08A95F1F7000081E30E941C0181E3F9
:100410000E94F5000E94E90080E090E0089580913C
:10042000B9008C7F809321010895991B79E004C065
:10043000991F961708F0961B881F7A95C9F7809523
:100440000895EE0FFF1F0590F491E02D0994F894A4
:02045000FFCFDC
:100452008000303132333435363738394142434403
:0204620045460D
:00000001FF
