:100000000C9434000C948A000C9451000C94510010
:100010000C9451000C9451000C9451000C9451001C
:100020000C9451000C9451000C9451000C94FF015D
:100030000C9451000C9451000C9451000C945100FC
:100040000C9451000C9451000C9451000C945100EC
:100050000C9451000C9451000C9451000C945100DC
:100060000C9451000C94510011241FBECFEFD8E026
:10007000DEBFCDBF11E0A0E0B1E0E2EBF4E002C0F2
:1000800005900D92A031B107D9F721E0A0E1B1E0D0
:1000900001C01D92AE31B207E1F70E9449020C94F3
:1000A00057020C9400008AE0809381001092850032
:1000B0001092840084EC99E09093890080938800EA
:1000C000EFE6F0E08081836080830895882351F01B
:1000D00010921001909110019923E1F310921001F8
:1000E0008150F4CF089580E78AB91BB880E284B9C3
:1000F000089587B1876087B988B1876088B9089506
:1001000087B1887F87B987B1876087B988B1887FD1
:1001100088B908951F920F920FB60F9211240F9075
:100120000FBE0F901F90189580E28093C00088E169
:100130008093C10086E08093C20088E090E09093B5
:10014000C5008093C40008959091C00095FFFCCF36
:100150008093C600089591E0909317016130A1F05B
:1001600018F0623009F130C08B3061F020F4873034
:1001700059F58AE008958D3019F08E3049F124C088
:1001800084E0089587E008958B3061F020F4873093
:10019000D9F480E008958D3019F08E30D9F014C074
:1001A00085E0089588E008958B3061F020F4873071
:1001B00059F48BE008958D3019F08E3069F004C049
:1001C00086E0089589E00895109217018FEF089551
:1001D00081E0089582E0089583E0089580911701F9
:1001E00081114AC08BB18F788BB983B18F708093A6
:1001F00016019091160180911D01981729F08091A8
:10020000160180931D0138C080911401882339F0B4
:10021000809116018F3081F5109214012DC08091CC
:1002200016018F3049F160E070E090E18BB180679A
:100230008BB92BB1892F809528232BB92AB1822322
:100240008AB98AB180678AB983B18F7080931601A9
:10025000809116018F3039F4990F6F5F7F4F6330B3
:10026000710521F7089581E08093140180931701AF
:10027000809116010C94AB008FEF08958823A9F0AC
:100280008130B1F08230B9F08330C1F08430C9F0F0
:100290008530D1F08630D9F08730E1F08830E9F050
:1002A0008930F1F08FEF9FEF089581E091E3089599
:1002B00081E191E3089581E291E3089581E391E37F
:1002C000089581E491E3089581E591E3089581E63D
:1002D00091E3089581E791E3089581E891E308951A
:1002E00081E991E3089528E030E087FF02C0449A55
:1002F00001C04498459A880F459821503109A9F7C3
:100300004498459A459808954498459808958823B7
:1003100011F0449A01C044983C9A459A4598089532
:100320004498459A449A0895846088600C947301B7
:10033000CF93C82F0E9494018C2FCF910C947301FE
:10034000EFE8F1E03197F1F700C0000098B1906359
:1003500098B997B1906397B94598809318010E9416
:10036000840180911801880F0E94730180E20E942D
:10037000980100C000C080E20E94980100C000C047
:1003800080E00E94980100C000C080E00E949801B7
:1003900000C000C080EE0E94980100C000C080E054
:1003A0000E94980100C000C080E60E94980181E38D
:1003B0000E94940181E30E94730181E00E949401F4
:1003C00081E00E9473010C949001CF93DF93EC01C4
:1003D0000E94840180911801880F0E9473018D2F63
:1003E0000E9494018D2F0E9473018C2F0E94940112
:1003F0008C2F0E947301DF91CF910C9490011F927A
:100400000F920FB60F9211242F933F934F935F9348
:100410006F937F938F939F93AF93BF93EF93FF93CC
:1004200081E0809310010E94EE008093150180917D
:1004300017018823B1F010921701809115018F3FA9
:10044000A9F08091150180911501809115018130ED
:1004500029F42D9A81E191E30E94E5010E9479003F
:1004600002C00E9480002D982598259AFF91EF9157
:10047000BF91AF919F918F917F916F915F914F91BC
:100480003F912F910F900FBE0F901F9018950C94D5
:10049000730178940E9473000E94940083E080931B
:1004A000690081E08DBB87E20E94A001FCCFF89437
:0204B000FFCF7C
:1004B2003031323334353637383941424344454698
:00000001FF
