:100000000C9434000C9468000C9446000C94460048
:100010000C9446000C9446000C9446000C94460048
:100020000C9446000C9446000C9446000C94460038
:100030000C9446000C9446000C9415010C94460058
:100040000C9446000C9446000C9446000C94460018
:100050000C9446000C9446000C9446000C94460008
:100060000C9446000C94460011241FBECFEFD8E03C
:10007000DEBFCDBF21E0A0E0B1E001C01D92A930FC
:10008000B207E1F70E943E010C9466010C94000057
:10009000E0E6F0E080818861808383E680830895D4
:1000A0008AE085BD84EC87BD83E080936E0008956F
:1000B00080E78AB91BB814B8089587B1876087B9FB
:1000C00088B1876088B9089588B1887F88B9089514
:1000D0001F920F920FB60F9211240F900FBE0F9028
:1000E0001F90189580E28093C00088E18093C10042
:1000F00086E08093C20088E090E09093C5008093F2
:10010000C40008959091C00095FFFCCF8093C60075
:1001100008956130B1F018F0623019F132C08430C6
:1001200061F018F4823079F12CC0883041F0803EC3
:1001300041F581E080930701089587E008958AE002
:100140000895823051F018F48130F9F01AC08430EB
:1001500031F08830B1F480E0089585E0089588E0BA
:100160000895823051F018F4813089F00AC084304B
:1001700031F0883031F48BE0089586E0089589E00D
:1001800008958FEF089584E0089582E0089583E054
:10019000089580910701811146C08BB18F788BB98A
:1001A00083B18F708093060180910101805D0E9470
:1001B00082009091060180910101981729F08091A9
:1001C0000601809301012FC080910401882339F03A
:1001D000809106018F3039F51092040124C080917E
:1001E00006018F3001F180E160E09BB190679BB91F
:1001F0009BB1282F209592239BB993B19F70909328
:100200000601909106019F3029F4880F6F5F6330DB
:1002100061F7089581E08093040180930701809144
:1002200006010C9489008FEF08951F920F920FB66C
:100230000F9211242F933F934F935F936F937F936C
:100240008F939F93AF93BF93EF93FF9381E080933E
:1002500000010E94C90080930501FF91EF91BF91B9
:10026000AF919F918F917F916F915F914F913F914E
:100270002F910F900FBE0F901F9018950E9448006D
:100280000E9458000E9450000E9472007894809151
:10029000000181111092000180910701882399F0DB
:1002A000109207018091050180910501809105015F
:1002B00080910501805D0E94820080E20E948200A0
:1002C0000E945D00E4CF0E946400E1CFF894FFCF6C
:00000001FF
