:100000000C9434000C9451000C9451000C94510049
:100010000C9451000C9451000C9451000C9451001C
:100020000C9451000C9451000C9451000C946302F8
:100030000C9451000C9451000C947D000C945100D0
:100040000C9451000C9451000C9451000C945100EC
:100050000C9451000C9451000C9451000C945100DC
:100060000C9451000C94510011241FBECFEFD8E026
:10007000DEBFCDBF11E0A0E0B1E0EAE7F6E002C0EC
:1000800005900D92A031B107D9F721E0A0E1B1E0D0
:1000900001C01D92AF31B207E1F70E9433030C9407
:1000A0003B030C9400008BE080938100109285004C
:1000B0001092840084EC99E09093890080938800EA
:1000C000EFE6F0E0808183608083089580E78AB95D
:1000D0001BB880E384B9089587B1876087B988B178
:1000E000876088B9089587B1887F87B987B18760AD
:1000F00087B988B1887F88B908951F920F920FB68B
:100100000F9211248F9381E0809310018F910F90B3
:100110000FBE0F901F90189580E28093C00088E179
:100120008093C10086E08093C20088E090E09093C5
:10013000C5008093C40008959091C00095FFFCCF46
:100140008093C600089591E0909317016130A1F06B
:1001500018F0623009F130C08B3061F020F4873044
:1001600059F58AE008958D3019F08E3049F124C098
:1001700084E0089587E008958B3061F020F48730A3
:10018000D9F480E008958D3019F08E30D9F014C084
:1001900085E0089588E008958B3061F020F4873081
:1001A00059F48BE008958D3019F08E3069F004C059
:1001B00086E0089589E00895109217018FEF089561
:1001C00081E0089582E0089583E008958823A9F0EE
:1001D0008130B1F08230B9F08330C1F08430C9F0A1
:1001E0008530D1F08630D9F08730E1F08830E9F001
:1001F0008930F1F08FEF9FEF089581E091E308954A
:1002000081E191E3089581E291E3089581E391E32F
:10021000089581E491E3089581E591E3089581E6ED
:1002200091E3089581E791E3089581E891E30895CA
:1002300081E991E3089595E09A95F1F7000028E0AF
:1002400030E087FF02C02C9A01C02C982D9A880FAD
:1002500095E09A95F1F700002D9895E09A95F1F7C1
:1002600000002150310969F72C9885E08A95F1F753
:1002700000002D9A95E09A95F1F700002D980895C9
:100280002C9885E08A95F1F700002D9885E08A95F5
:10029000F1F70000089595E09A95F1F700008823A2
:1002A00011F02C9A01C02C9885E08A95F1F7000096
:1002B000249A95E09A95F1F700002D9A85E08A95A9
:1002C000F1F700002D9808952C9885E08A95F1F7B4
:1002D00000002D9A85E08A95F1F700002C9A089588
:1002E00095E09A95F1F70000846088600C941B01FA
:1002F00095E09A95F1F700000C947001F89488B19C
:10030000809588B92FEF80EE90E02150804090409A
:10031000E1F700C000000E9440018EE40E941B0132
:1003200080E20E9478018FE19EE40197F1F700C01E
:10033000000080E20E941B018FE19EE40197F1F72B
:1003400000C0000080E30E941B0180E00E94780151
:100350008FE19EE40197F1F700C0000080E00E9469
:10036000780180E00E941B018FE19EE40197F1F784
:1003700000C0000080EE0E94780180EE0E941B0108
:100380008FE19EE40197F1F700C0000080E00E9439
:10039000780180E00E941B018FE19EE40197F1F754
:1003A00000C0000080E60E94780180E60E941B01E8
:1003B0008FE19EE40197F1F700C000000E94640104
:1003C00088B1809588B978940895CF93DF93809110
:1003D0001701811155C08BB18F788BB983B18F70A4
:1003E000809316019091160180911E01981729F0B3
:1003F0008091160180931E0143C0809114018823CF
:1004000039F0809116018F30D9F51092140138C05F
:10041000809116018F30A1F1C0E0D0E090E18BB166
:1004200080678BB92BB1892F809528232BB92AB1EE
:1004300082238AB98AB180678AB983B18F70809329
:100440001601809116018F3031F4990F2196C33037
:10045000D10529F716C080911901811103C087E2E7
:100460000E947E0181E080931901809314018093A2
:100470001701809116016C2FDF91CF910C94A3008E
:100480008FEFDF91CF910895CF93DF93EC01F89434
:1004900085E08A95F1F700000E9440018EE40E94F9
:1004A0001B018D2F0E941B018D2F0E9470018C2F2C
:1004B0000E941B018C2F0E9470010E94640178949D
:1004C000DF91CF9108951F920F920FB60F921124D2
:1004D0002F933F934F935F936F937F938F939F934C
:1004E000AF93BF93EF93FF930E94E50180931501B3
:1004F00080911701882309F4A1C0109217018091FF
:1005000015018F3F09F49CC0809115018A3019F4C0
:1005100087E20E947E01809115018B30C9F580E150
:1005200090E00E9444028AEC8A95F1F700C080E3D3
:1005300090E00E9444028FE19EE40197F1F700C031
:10054000000087E20E947E018FE19EE40197F1F7AF
:1005500000C0000080E190E00E9444029AEC9A956D
:10056000F1F700C080E390E00E9444028FE39CE931
:100570000197F1F700C0000087E20E947E018FE33F
:100580009CE90197F1F700C0000087E20E947E011C
:1005900080911501813021F481E191E30E944402B0
:1005A00080911501823021F481E291E30E9444029E
:1005B00080911501833021F481E391E30E9444028C
:1005C00080911501843021F481E491E30E9444027A
:1005D00080911501853021F481E591E30E94440268
:1005E00080911501863021F481E691E30E94440256
:1005F00080911501873021F481E791E30E94440244
:1006000080911501883021F481E891E30E94440231
:1006100080911501893021F481E991E30E9444021F
:1006200080911501811104C081E091E30E94440290
:1006300080EF90E00E944402459A02C0459840989D
:10064000FF91EF91BF91AF919F918F917F916F91AA
:100650005F914F913F912F910F900FBE0F901F9080
:1006600018950C941B0178940E9466000E948C00DF
:0A0670000E945300FFCFF894FFCF63
:10067A0030313233343536373839414243444546CE
:00000001FF
