:100000000C9434000C9451000C9451000C94510049
:100010000C9451000C9451000C9451000C9451001C
:100020000C9451000C9451000C9451000C94A902B2
:100030000C9451000C9451000C947D000C945100D0
:100040000C9451000C9451000C9451000C945100EC
:100050000C9451000C9451000C9451000C945100DC
:100060000C9451000C94510011241FBECFEFD8E026
:10007000DEBFCDBF11E0A0E0B1E0E6E9F6E002C0EE
:1000800005900D92A031B107D9F721E0A0E1B1E0D0
:1000900001C01D92AF31B207E1F70E9441030C94F9
:1000A00049030C9400008BE080938100109285003E
:1000B0001092840084EC99E09093890080938800EA
:1000C000EFE6F0E0808183608083089580E78AB95D
:1000D0001BB880E384B9089587B1876087B988B178
:1000E000876088B9089587B1887F87B987B18760AD
:1000F00087B988B1887F88B908951F920F920FB68B
:100100000F9211248F9381E0809310018F910F90B3
:100110000FBE0F901F90189580E28093C00088E179
:100120008093C10086E08093C20088E090E09093C5
:10013000C5008093C40008959091C00095FFFCCF46
:100140008093C600089591E0909317016130A1F06B
:1001500018F0623009F130C08B3061F020F4873044
:1001600059F58AE008958D3019F08E3049F124C098
:1001700084E0089587E008958B3061F020F48730A3
:10018000D9F480E008958D3019F08E30D9F014C084
:1001900085E0089588E008958B3061F020F4873081
:1001A00059F48BE008958D3019F08E3069F004C059
:1001B00086E0089589E00895109217018FEF089561
:1001C00081E0089582E0089583E008958823A9F0EE
:1001D0008130B1F08230B9F08330C1F08430C9F0A1
:1001E0008530D1F08630D9F08730E1F08830E9F001
:1001F0008930F1F08FEF9FEF089581E091E308954A
:1002000081E191E3089581E291E3089581E391E32F
:10021000089581E491E3089581E591E3089581E6ED
:1002200091E3089581E791E3089581E891E30895CA
:1002300081E991E3089595E09A95F1F7000028E0AF
:1002400030E087FF02C02C9A01C02C982D9A880FAD
:1002500095E09A95F1F700002D9895E09A95F1F7C1
:1002600000002150310969F72C9885E08A95F1F753
:1002700000002D9A95E09A95F1F700002D980895C9
:100280002C9885E08A95F1F700002D9885E08A95F5
:10029000F1F70000089595E09A95F1F700008823A2
:1002A00011F02C9A01C02C9885E08A95F1F7000096
:1002B000249A95E09A95F1F700002D9A85E08A95A9
:1002C000F1F700002D9808952C9885E08A95F1F7B4
:1002D00000002D9A85E08A95F1F700002C9A089588
:1002E00095E09A95F1F70000846088600C941B01FA
:1002F00095E09A95F1F700000C947001F8942FEFB7
:1003000080EE90E0215080409040E1F700C0000076
:100310000E9440018EE40E941B0180E20E9478014D
:100320002FEF80EE90E0215080409040E1F700C038
:10033000000080E20E941B018FE99FE00197F1F726
:1003400000C0000080E30E941B0180E00E94780151
:100350009AEC9A95F1F700C080E00E94780180E065
:100360000E941B012AEC2A95F1F700C080EE0E9442
:10037000780180EE0E941B018AEC8A95F1F700C09B
:1003800080E00E94780180E00E941B019AEC9A951F
:10039000F1F700C080E60E94780180E60E941B0110
:1003A0002AEC2A95F1F700C00E9464017894089520
:1003B000CF93DF9380911701811155C08BB18F7856
:1003C0008BB983B18F708093160190911601809143
:1003D0001E01981729F08091160180931E0143C0D9
:1003E00080911401882339F0809116018F30D9F55E
:1003F0001092140138C0809116018F30A1F1C0E035
:10040000D0E090E18BB180678BB92BB1892F8095BB
:1004100028232BB92AB182238AB98AB180678AB985
:1004200083B18F7080931601809116018F3031F463
:10043000990F2196C330D10529F716C08091190173
:10044000811103C087E20E947E0181E0809319013F
:100450008093140180931701809116016C2FDF9116
:10046000CF910C94A3008FEFDF91CF910895CF939C
:10047000DF93EC01F89485E08A95F1F700000E9483
:1004800040018EE40E941B0180E00E941B018D2F21
:100490000E94700180E00E941B018C2F0E9470015D
:1004A0000E9464017894DF91CF91089580E490E0F8
:1004B0000E94370281E091EA0E94370280E690E0D4
:1004C0000C943702F89480E190E00E9437028AECA5
:1004D0008A95F1F700C080E190E00E9437028AEC33
:1004E0008A95F1F700C080E390E00E9437028AEC21
:1004F0008A95F1F700C087E20E947E018AEC8A9516
:10050000F1F700C080E190E00E9437028AEC8A9502
:10051000F1F700C080E390E00E9437028AEC8A95F0
:10052000F1F700C087E20E947E018AEC8A95F1F71C
:1005300000C087E20E947E0180EC90E20E943702B8
:1005400080E290E00E94370287E20E947E01789468
:1005500008951F920F920FB60F9211242F933F937D
:100560004F935F936F937F938F939F93AF93BF93BB
:10057000EF93FF930E94D80180931501809117019A
:10058000882309F469C010921701809115018F3FEB
:1005900009F464C0809115018A3011F40E9462024E
:1005A000809115018B3011F40E9456028091150143
:1005B000813021F481E191E30E943702809115019D
:1005C000823021F481E291E30E943702809115018B
:1005D000833021F481E391E30E9437028091150179
:1005E000843021F481E491E30E9437028091150167
:1005F000853021F481E591E30E9437028091150155
:10060000863021F481E691E30E9437028091150142
:10061000873021F481E791E30E9437028091150130
:10062000883021F481E891E30E943702809115011E
:10063000893021F481E991E30E943702809115010C
:10064000811104C081E091E30E94370280EF90E0C5
:100650000E943702459A02C045984098FF91EF9159
:10066000BF91AF919F918F917F916F915F914F91CA
:100670003F912F910F900FBE0F901F9018950C94E3
:100680001B0178940E9466000E948C000E94530017
:06069000FFCFF894FFCF3C
:1006960030313233343536373839414243444546B2
:00000001FF
