:100000000C9434000C9472000C9446000C9446003E
:100010000C9446000C9446000C9446000C94460048
:100020000C9446000C9420010C9446000C9446005D
:100030000C9446000C9446000C9449010C94460024
:100040000C9446000C9446000C9446000C94460018
:100050000C9446000C9446000C9446000C94460008
:100060000C9446000C94460011241FBECFEFD8E03C
:10007000DEBFCDBF21E0A0E0B1E001C01D92A930FC
:10008000B207E1F70E946D010C9495010C940000F9
:10009000E0E6F0E080818E67808308958AE085BD88
:1000A00084EC87BD83E080936E0008951092B000C9
:1000B0008CE08093B10084EC8093B30083E0809364
:1000C0007000089580E78AB91BB814B8089587B105
:1000D000876087B988B1876088B9089588B1887FBB
:1000E00088B908951F920F920FB60F9211240F90A6
:1000F0000FBE0F901F90189580E28093C00088E19A
:100100008093C10086E08093C20089E090E09093E4
:10011000C5008093C40008959091C00095FFFCCF66
:100120008093C60008956130E1F018F0623049F123
:1001300038C0803B89F018F48037A9F132C0803D87
:1001400031F0803E71F581E080930701089581E0F0
:100150008093070184E0089581E08093070187E0A0
:100160000895803B61F020F48037D9F480E0089551
:10017000803D19F0803EC9F014C085E0089588E004
:100180000895803B61F020F4803759F48BE00895A6
:10019000803D19F0803E59F004C086E0089589E062
:1001A00008958FEF08958AE0089582E0089583E02E
:1001B000089580910701811141C08BB18F788BB96F
:1001C00083B18F70809306019091060180910101A7
:1001D000981729F080910601809301012FC080912A
:1001E0000401882339F0809106018F3039F510928F
:1001F000040124C0809106018F3001F180E160E0AC
:100200009BB190679BB99BB1282F209592239BB9F6
:1002100093B19F7090930601909106019F3029F44D
:10022000880F6F5F633061F7089581E08093040168
:1002300080930701809106010C9493008FEF08953D
:100240001F920F920FB60F9211242F933F934F934B
:100250005F936F937F938F939F93AF93BF93EF932E
:10026000FF9381E0809300010E94D90080930501F3
:10027000FF91EF91BF91AF919F918F917F916F917E
:100280005F914F913F912F910F900FBE0F901F9054
:1002900018951F920F920FB60F9211242F933F9330
:1002A0004F935F936F937F938F939F93AF93BF937E
:1002B000EF93FF930E942001FF91EF91BF91AF91C7
:1002C0009F918F917F916F915F914F913F912F916E
:1002D0000F900FBE0F901F9018950E9448000E942B
:1002E00062000E9456000E947C0078948091000178
:1002F00081111092000180910701882399F01092DA
:10030000070180910501809105018091050180918F
:100310000501805D0E948C0080E20E948C000E949A
:0E0320006700E4CF0E946E00E1CFF894FFCF9B
:00000001FF
