:100000000C9434000C9448000C9446000C94460068
:100010000C9446000C9446000C9446000C94F70097
:100020000C9446000C9446000C9446000C94A400DA
:100030000C9446000C9446000C9446000C94460028
:100040000C9446000C9446000C9446000C94460018
:100050000C9446000C9446000C9446000C94460008
:100060000C9446000C94460011241FBECFEFD8E03C
:10007000DEBFCDBF21E0A0E0B1E001C01D92AF30F6
:10008000B207E1F70E9459010C94A8020C940000F9
:100090001F920F920FB60F9211242F933F935F93ED
:1000A0006F937F938F939F93AF93BF931092810031
:1000B000109285001092840080910A01811102C083
:1000C000E89834C08AE08093810080916F0082605C
:1000D00080936F00209107018091080130E090E04B
:1000E00001962817390731F0809107018F5F8093BF
:1000F00007011CC080916F008D7F80936F008091FD
:100100000101909102016091080170E00E946A0172
:10011000CB01A0E0B0E080930B0190930C01A09381
:100120000D01B0930E0181E080930901BF91AF9161
:100130009F918F917F916F915F913F912F910F9040
:100140000FBE0F901F9018951F920F920FB60F922F
:1001500011248F939F938091010190910201019648
:1001600090930201809301019F918F910F900FBE98
:100170000F901F9018958AE080938100109285005F
:100180001092840082E090E0909389008093880030
:10019000EFE6F0E080818260808308958BE08093B9
:1001A000B1001092B2008FEF8093B300E0E7F0E06F
:1001B0008081826080838093B400089580E2809380
:1001C000C00088E18093C10086E08093C20088E08F
:1001D00090E09093C5008093C40008951AB80895E4
:1001E0009091C00095FFFCCF8093C60008951F92A8
:1001F0000F920FB60F9211242F933F934F935F935B
:100200006F937F938F939F93AF93BF93EF93FF93DE
:1002100080910A01811114C0F89410920301109288
:100220000401109205011092060110920201109231
:10023000010181E08093080180930A017894E89A93
:1002400080910901882321F1E89810920A01109207
:10025000090160910B0170910C0180910D01909149
:100260000E010E94AD0121E73DE34AEA5FE30E94EF
:1002700013020E947E016093000180910001805D65
:100280000E94F0001092070185E38A95F1F70000C3
:10029000FF91EF91BF91AF919F918F917F916F915E
:1002A0005F914F913F912F910F900FBE0F901F9034
:1002B000189578940E94BB000E94CE000E94DE0038
:1002C0001AB81092000183E080936900E89A80E0F8
:1002D00090E00895AA1BBB1B51E107C0AA1FBB1FDA
:1002E000A617B70710F0A61BB70B881F991F5A95C2
:1002F000A9F780959095BC01CD0108950E94F20167
:1003000088F09F5798F0B92F9927B751B0F0E1F0D6
:10031000660F771F881F991F1AF0BA95C9F714C086
:10032000B13091F00E940C02B1E008950C940C02DF
:10033000672F782F8827B85F39F0B93FCCF38695BF
:1003400077956795B395D9F73EF49095809570951C
:1003500061957F4F8F4F9F4F0895E89409C097FB99
:100360003EF490958095709561957F4F8F4F9F4F8C
:100370009923A9F0F92F96E9BB279395F6958795D0
:1003800077956795B795F111F8CFFAF4BB0F11F493
:1003900060FF1BC06F5F7F4F8F4F9F4F16C088233A
:1003A00011F096E911C0772321F09EE8872F762F70
:1003B00005C0662371F096E8862F70E060E02AF0B1
:1003C0009A95660F771F881FDAF7880F969587959D
:1003D00097F9089557FD9058440F551F59F05F3F06
:1003E00071F04795880F97FB991F61F09F3F79F057
:1003F00087950895121613061406551FF2CF4695D9
:10040000F1DF08C0161617061806991FF1CF86955A
:100410007105610508940895E894BB27662777273E
:10042000CB0197F908950E9426020C9497020E942E
:10043000890238F00E94900220F0952311F00C946C
:1004400080020C94860211240C940D020E94EA0191
:1004500070F3959FC1F3950F50E0551F629FF00117
:10046000729FBB27F00DB11D639FAA27F00DB11D30
:10047000AA1F649F6627B00DA11D661F829F2227B9
:10048000B00DA11D621F739FB00DA11D621F839F40
:10049000A00D611D221F749F3327A00D611D231F16
:1004A000849F600D211D822F762F6A2F11249F5764
:1004B00050409AF0F1F088234AF0EE0FFF1FBB1F67
:1004C000661F771F881F91505040A9F79E3F510526
:1004D00080F00C9480020C940D025F3FE4F3983E90
:1004E000D4F3869577956795B795F795E7959F5FD0
:1004F000C1F7FE2B880F911D9695879597F9089562
:1005000097F99F6780E870E060E008959FEF80ECC6
:10051000089500240A941616170618060906089569
:1005200000240A9412161306140605060895092ECF
:100530000394000C11F4882352F0BB0F40F4BF2B3E
:1005400011F460FF04C06F5F7F4F8F4F9F4F08957E
:04055000F894FFCF4D
:00000001FF
