:100000000C9434000C9451000C9451000C94510049
:100010000C9451000C9451000C9451000C9451001C
:100020000C9451000C9451000C9451000C94BE049B
:100030000C9451000C9451000C9451000C945100FC
:100040000C9451000C9451000C949E000C9451009F
:100050000C9451000C9451000C9451000C945100DC
:100060000C9451000C94510011241FBECFEFD8E026
:10007000DEBFCDBF11E0A0E0B1E0E4EAF0E102C0F4
:1000800005900D92A230B107D9F721E0A2E0B1E0CE
:1000900001C01D92AB33B207E1F70E94C6070C9472
:1000A00050080C9400008BE0809381001092850032
:1000B0001092840084EC99E09093890080938800EA
:1000C000EFE6F0E0808183608083089580E78AB95D
:1000D0001BB880E384B9089589E090E090931D01F6
:1000E00080931C01EFE1F1E01182108213821282F1
:1000F0001582148217821682118610861386128644
:100100000895E0ECF0E080E280838081806280836B
:10011000E1ECF0E080818869808386E08093C20012
:1001200088E090E09093C5008093C400089590917A
:10013000C00095FFFCCF8093C60008951F920F92D8
:100140000FB60F9211242F933F934F935F936F93AA
:100150007F938F939F93AF93BF93EF93FF93809180
:10016000C6008093020180580E949700FF91EF9192
:10017000BF91AF919F918F917F916F915F914F91BF
:100180003F912F910F900FBE0F901F90189591E007
:10019000909312016130A1F018F0623009F130C083
:1001A0008B3061F020F4873059F58AE008958D3066
:1001B00019F08E3049F124C084E0089587E0089555
:1001C0008B3061F020F48730D9F480E008958D30D1
:1001D00019F08E30D9F014C085E0089588E00895B4
:1001E0008B3061F020F4873059F48BE008958D3026
:1001F00019F08E3069F004C086E0089589E0089512
:10020000109212018FEF089581E0089582E0089521
:1002100083E008958091120181114AC08BB18F78DB
:100220008BB983B18F7080931101909111018091EE
:100230001E01981729F08091110180931E0138C08A
:1002400080910F01882339F0809111018F3081F561
:1002500010920F012DC0809111018F3049F160E0A3
:1002600070E090E18BB180678BB92BB1892F8095BD
:1002700028232BB92AB182238AB98AB180678AB927
:1002800083B18F7080931101809111018F3039F407
:10029000990F6F5F7F4F6330710551F0E3CF81E0BD
:1002A00080930F0180931201809111010C94C7007B
:1002B0008FEF08958823A9F08130B1F08230B9F032
:1002C0008330C1F08430C9F08530D1F08630D9F068
:1002D0008730E1F08830E9F08930F1F08FEF9FEF5F
:1002E000089581E091E3089581E191E3089581E229
:1002F00091E3089581E391E3089581E491E3089502
:1003000081E591E3089581E691E3089581E791E322
:10031000089581E891E3089581E991E3089595E0D6
:100320009A95F1F7000028E030E087FF02C02C9A90
:1003300001C02C982D9A880F95E09A95F1F700004E
:100340002D9895E09A95F1F700002150310969F751
:100350002C9885E08A95F1F700002D9A95E09A9502
:10036000F1F700002D9808952C9885E08A95F1F713
:1003700000002D9885E08A95F1F70000089595E03A
:100380009A95F1F70000882311F02C9A01C02C985F
:1003900085E08A95F1F70000249A95E09A95F1F7A7
:1003A00000002D9A85E08A95F1F700002D980895B8
:1003B0002C9885E08A95F1F700002D9A85E08A95C2
:1003C000F1F700002C9A089595E09A95F1F7000056
:1003D000846088600C948F0195E09A95F1F7000095
:1003E0000C94E401CF93C82FF8942FEF80EE90E0A7
:1003F000215080409040E1F700C000000E94B4010D
:100400008C2F880F0E948F0180E20E94EC018FE305
:100410009FE10197F1F700C0000080E20E948F0188
:100420008FE39FE10197F1F700C0000080E30E9495
:100430008F0180E00E94EC019AEC9A95F1F700C0E0
:1004400080E00E94EC0180E00E948F012AEC2A9556
:10045000F1F700C080EE0E94EC0180EE0E948F0157
:100460008AEC8A95F1F700C080E00E94EC0180E000
:100470000E948F019AEC9A95F1F700C080E60E94E5
:10048000EC0180E60E948F012AEC2A95F1F700C06A
:100490000E94D80185ED8A95F1F700007894CF91FC
:1004A0000895CF93DF93EC01F8940E94B4018EE499
:1004B0000E948F018D2F0E948F018D2F0E94E401D9
:1004C0008C2F0E948F018C2F0E94E4010E94D80182
:1004D0007894DF91CF91089580E490E00E945102DA
:1004E00081E091EA0E94510280E490E00E94510272
:1004F00081E091EA0E94510280E690E00C94510262
:10050000F89480E190E00E9451028AEC8A95F1F71C
:1005100000C080E190E00E9451028AEC8A95F1F7D8
:1005200000C080E390E00E9451028AEC8A95F1F7C6
:1005300000C087E20E94F2018AEC8A95F1F700C0C0
:1005400080E190E00E9451028AEC8A95F1F700C0A8
:1005500080E390E00E9451028AEC8A95F1F700C096
:1005600087E20E94F2018AEC8A95F1F700C087E2E7
:100570000E94F20180EC90E20E94510280E290E041
:100580000E94510287E20E94F201789480EC90E090
:100590000C945102CF93C82FCC2331F080E090E12E
:1005A0000E945102C150F8CF80E690E00E945102B3
:1005B00080EE90E0CF910C9451020F931F93CF9354
:1005C000DF938093040160930301809104018A30DA
:1005D00068F0809104012AE0622F0E941C08082F15
:1005E000809104010E941C08192F07C0809104010A
:1005F0006AE00E941C08192F00E0809103018A30F4
:1006000068F0809103012AE0622F0E941C08D82F15
:10061000809103010E941C08C92F07C0809103012B
:100620006AE00E941C08C92FD0E00E94800281E08D
:1006300091E20E94510281E091E20E94510281E028
:1006400091E20E94510281E091E20E945102802FCA
:100650000E945A010E945102812F0E945A010E9459
:10066000510281EA91E30E9451028D2F0E945A01AA
:100670000E9451028C2F0E945A010E94510281EA6D
:1006800091E30E94510281E091E30E94510281E0D6
:1006900091E30E94510280EC90E00E94510284E0BC
:1006A0000E94CA0289E090E090931D0180931C0192
:1006B000DF91CF911F910F9108950E94800281E0F8
:1006C00091E20E94510281E091E20E94510281E098
:1006D00091E20E94510281E091E20E94510281E088
:1006E00091E30E94510281E091E30E94510281EA6C
:1006F00091E30E94510281E091E30E94510281E066
:1007000091E30E94510281EA91E30E94510281E04B
:1007100091E30E94510281E091E30E94510280EC3A
:1007200090E00E94510284E00E94CA0289E090E0B9
:1007300090931D0180931C010895CF93C82FCC2363
:1007400031F080E490E10E945102C150F8CF80EE78
:1007500090E0CF910C945102CF93809104018823B3
:1007600061F080910301811108C0809104018150E2
:10077000809304018CE380930301809104018A300B
:10078000A0F483E00E94CA02809104010E945A01F1
:100790000E94510282E00E949D0380EC90E00E9442
:1007A000510280EC90E00E945102809104018B3054
:1007B00060F084E00E94CA0280910401CAE06C2FBC
:1007C0000E941C080E945A0109C0C0910401CA304D
:1007D000E1F484E00E94CA0281E091E30E945102A8
:1007E000809104016C2F0E941C08892F0E945A01DD
:1007F0000E94510282E00E949D0380EC90E00E94E2
:10080000510280EC90E00E945102809103018130FE
:1008100009F59091160191111DC090910401992341
:10082000B1F081E091E30E94510281E00E94CA028E
:1008300083E690E090930801809307018CE3809316
:100840000301809104018150809304017CC0809356
:10085000160179C0809103018C3341F58091040128
:10086000811106C083E00E94CA0281E091E30BC0BF
:10087000809104018823A1F083E00E94CA02809144
:1008800004010E945A010E94510282E00E949D03CD
:1008900080EC90E00E94510280EC90E00E945102B6
:1008A00081E00E94CA0281E591E329C080910301A1
:1008B0008A30E1F080910301CAE06C2F0E941C088D
:1008C00081E0911109C00E94CA02809103016C2F3E
:1008D0000E941C08815007C00E94CA028091030137
:1008E0006C2F0E941C080E945A0109C080910301CC
:1008F0008A3049F581E00E94CA0281E091E30E94BA
:1009000051028091030190E001976AE070E00E943B
:100910003C080E945A010E94510281E00E94CA02D2
:1009200080EC90E00E94510280EC90E00E94510225
:1009300083E690E090930801809307018091030182
:10094000815080930301CF9108959091180181E027
:1009500089278093180180911801882339F080EF4E
:1009600090E00E94510280EF90E006C080EE90E09F
:100970000E94510280EE90E00C9451021F920F925F
:100980000FB60F9211242F933F934F935F936F9362
:100990007F938F939F93AF93BF93CF93DF93EF9307
:1009A000FF9380911401882309F445C080910901C7
:1009B00090910A01892B49F08091090190910A01D7
:1009C000019790930A01809309018091070190910A
:1009D0000801892B81F1809107019091080101970D
:1009E000909308018093070182E00E949D0380910B
:1009F000070190910801CAE0D0E0BE010E942808DA
:100A0000862F0E945A010E94510280910701909105
:100A10000801BE010E9428080E945A010E9451024A
:100A200084E00E94CA0280EC90E00E94510280ECB7
:100A300090E00E9451020E940A018093100180916F
:100A40001801882309F464C180911201882309F4F4
:100A50005FC110921201809110018F3F09F438C2DA
:100A600080911001823009F097C080911C01909113
:100A70001D010597E9F48091290190912A01C297FF
:100A800094F48091290190912A010A9690932A0169
:100A90008093290180911F019091200101969093EC
:100AA000200180931F0180911F019091200168C057
:100AB00080911C0190911D010697E9F48091290114
:100AC00090912A01099794F48091290190912A012B
:100AD000019690932A0180932901809121019091A0
:100AE000220101969093220180932101809121019E
:100AF0009091220145C080911C0190911D010897A1
:100B0000E9F48091270190912801C29794F4809193
:100B10002701909128010A9690932801809327013C
:100B20008091230190912401019690932401809358
:100B30002301809123019091240122C080911C0106
:100B400090911D01099741F580912701909128010D
:100B5000099794F480912701909128010196909330
:100B6000280180932701809125019091260101960B
:100B70009093260180932501809125019091260173
:100B80000E945A010E94510280E090E10E945102AD
:100B900080EF90E00E94510280911001853061F455
:100BA0000E94A5046091270170912801809129017C
:100BB00090912A010E94DD0280911001883009F095
:100BC000A7C080911C0190911D01059721F580918E
:100BD000290190912A010B97CCF080911F019091EF
:100BE00020011816190694F48091290190912A0188
:100BF0000A9790932A018093290180911F01909177
:100C0000200101979093200180931F0180911F0183
:100C10009091200171C080911C0190911D01069757
:100C2000F1F48091290190912A011816190694F483
:100C30008091290190912A01019790932A01809334
:100C40002901809121019091220101979093220125
:100C50008093210180912101909122014DC08091CA
:100C60001C0190911D01089721F580912701909119
:100C700028010B97CCF08091230190912401181644
:100C8000190694F480912701909128010A97909376
:100C900028018093270180912301909124010197DD
:100CA000909324018093230180912301909124014A
:100CB00023C080911C0190911D01099749F58091F5
:100CC0002701909128011816190694F480912701A4
:100CD000909128010197909328018093270180919A
:100CE000250190912601019790932601809325017B
:100CF00080912501909126010E945A010E94510283
:100D000080E090E10E94510280EF90E00E94510249
:100D100080911201882309F4D9C0809118018111B2
:100D2000D5C010921201809110018F3F09F4D0C0FC
:100D3000809110018A3011F40E945D0380911001AE
:100D40008B3081F580911C0190911D010A9744F030
:100D500080911C0190911D0189500E94CA020EC011
:100D600080911C0190911D010997B4F420911C0100
:100D700030911D0189E0821B0E949D0389E090E073
:100D800090931D0180931C0180EC90E00E94510221
:100D900080EC90E00E9451029091140181E089273B
:100DA000809314018091100180911001833011F41F
:100DB0000E94AC0380911001843029F580911401C8
:100DC000811121C080911C0190911D010697DCF0DA
:100DD00080911C0190911D01089749F482E00E94C6
:100DE000CA0280911C0190911D01029708C081E008
:100DF0000E94CA0280911C0190911D01019790935D
:100E00001D0180931C01809110018530D1F48091E7
:100E10001C0190911D01059791F080911C0190910A
:100E20001D01069761F080911C0190911D010897AA
:100E300031F080911C0190911D01099711F40E94DD
:100E4000A50480911001863029F58091140181114B
:100E500021C080911C0190911D010997DCF48091C3
:100E60001C0190911D01069749F482E00E949D03A8
:100E700080911C0190911D01029608C081E00E94A2
:100E80009D0380911C0190911D01019690931D017D
:100E900080931C0180911001873041F481E791E338
:100EA0000E94510280EE90E00E9451028091100158
:100EB00080911001811108C081E091E30E945102EC
:100EC00080EE90E00E945102459A02C045984098F9
:100ED000FF91EF91DF91CF91BF91AF919F918F9152
:100EE0007F916F915F914F913F912F910F900FBE26
:100EF0000F901F9018950C948F0120911A018091EA
:100F00001B0130E0281B310981E090E02F303105D2
:100F100014F480E090E00895CF93C82F0E947D07DD
:100F2000892B81F4E0911A01F0E0E55DFE4FC0836A
:100F300080911A018F5F80931A0180911A018F703E
:100F400080931A01CF91089530911B0120911A01CD
:100F500081E090E0321711F080E090E008950E9467
:100F6000A407892B89F4E0911B01F0E0E55DFE4FB9
:100F7000808190911B019F5F90931B0190911B01B9
:100F80009F7090931B0108958FEF089578940E94AD
:100F90006C000E94660087E20E94F2010E948002BB
:100FA0000E945D030E9481000E94530011E0C4E68C
:100FB000D0E088B1812788B980911601882351F04B
:100FC00010921601109214010E945D0310921901F3
:100FD0000E946C0080911901813079F028F08230F4
:100FE000B9F08330E1F0E5CF80911401882309F353
:100FF000D0930A01C093090116C080910901909114
:101000000A01892BB1F6809119018F5F8093190134
:101010000E94AC03809119018F5F80931901809128
:101020001601882331F0809119018F5F8093190197
:10103000C0CF10921901BDCF991B79E004C0991F50
:10104000961708F0961B881F7A95C9F78095089522
:10105000AA1BBB1B51E107C0AA1FBB1FA617B707DE
:1010600010F0A61BB70B881F991F5A95A9F78095FA
:101070009095BC01CD01089597FB072E16F40094BE
:1010800007D077FD09D00E94280807FC05D03EF460
:10109000909581959F4F0895709561957F4F089524
:0410A000F894FFCFF2
:0210A400010049
:00000001FF
