:100000000C9434000C9451000C9451000C94510049
:100010000C9451000C9451000C9451000C9451001C
:100020000C9451000C9451000C9451000C94A803B2
:100030000C9451000C9451000C9451000C945100FC
:100040000C9451000C9451000C9451000C945100EC
:100050000C9451000C9451000C9451000C945100DC
:100060000C9451000C94510011241FBECFEFD8E026
:10007000DEBFCDBF11E0A0E0B1E0ECEBFAE002C0E2
:1000800005900D92A230B107D9F721E0A2E0B1E0CE
:1000900001C01D92AB31B207E1F70E94CB040C9472
:1000A0005C050C94000080930301609302010895A5
:1000B0008BE080938100109285001092840084EC84
:1000C00099E09093890080938800EFE6F0E08081CA
:1000D00083608083089580E78AB91BB880E384B980
:1000E000089580E28093C00088E18093C10086E09B
:1000F0008093C20088E090E09093C5008093C40094
:1001000008959091C00095FFFCCF8093C60008959C
:1001100091E0909312016130A1F018F0623009F182
:1001200030C08B3061F020F4873059F58AE00895B3
:100130008D3019F08E3049F124C084E0089587E0B5
:1001400008958B3061F020F48730D9F480E0089571
:100150008D3019F08E30D9F014C085E0089588E014
:1001600008958B3061F020F4873059F48BE00895C6
:100170008D3019F08E3069F004C086E0089589E072
:100180000895109212018FEF089581E0089582E0A2
:10019000089583E008958091120181114AC08BB1C6
:1001A0008F788BB983B18F70809311019091110179
:1001B00080911801981729F08091110180931801FE
:1001C00038C080910F01882339F0809111018F3060
:1001D00081F510920F012DC0809111018F3049F1EE
:1001E00060E070E090E18BB180678BB92BB1892F13
:1001F000809528232BB92AB182238AB98AB18067D6
:100200008AB983B18F7080931101809111018F3071
:1002100039F4990F6F5F7F4F6330710551F0E3CF71
:1002200081E080930F0180931201809111010C9461
:1002300088008FEF08958823A9F08130B1F08230D3
:10024000B9F08330C1F08430C9F08530D1F0863008
:10025000D9F08730E1F08830E9F08930F1F08FEFA4
:100260009FEF089581E091E3089581E191E308957E
:1002700081E291E3089581E391E3089581E491E3BC
:10028000089581E591E3089581E691E3089581E77A
:1002900091E3089581E891E3089581E991E3089558
:1002A00095E09A95F1F7000028E030E087FF02C062
:1002B0002C9A01C02C982D9A880F95E09A95F1F709
:1002C00000002D9895E09A95F1F700002150310932
:1002D00069F72C9885E08A95F1F700002D9A95E052
:1002E0009A95F1F700002D9808952C9885E08A954D
:1002F000F1F700002D9885E08A95F1F70000089548
:1003000095E09A95F1F70000882311F02C9A01C02E
:100310002C9885E08A95F1F70000249A95E09A954B
:10032000F1F700002D9A85E08A95F1F700002D98ED
:1003300008952C9885E08A95F1F700002D9A85E0C4
:100340008A95F1F700002C9A089595E09A95F1F7B7
:100350000000846088600C94500195E09A95F1F754
:1003600000000C94A501CF93C82FF8942FEF80EED6
:1003700090E0215080409040E1F700C000000E94D2
:1003800075018C2F880F0E94500180E20E94AD0100
:100390008FE39FE10197F1F700C0000080E20E9427
:1003A00050018FE39FE10197F1F700C0000080E367
:1003B0000E94500180E00E94AD019AEC9A95F1F7FD
:1003C00000C080E00E94AD0180E00E9450012AEC54
:1003D0002A95F1F700C080EE0E94AD0180EE0E94E8
:1003E00050018AEC8A95F1F700C080E00E94AD01CF
:1003F00080E00E9450019AEC9A95F1F700C080E6E7
:100400000E94AD0180E60E9450012AEC2A95F1F786
:1004100000C00E94990185ED8A95F1F7000078945B
:10042000CF910895CF93DF93EC01F8940E9475016A
:100430008EE40E9450018D2F0E9450018D2F0E944A
:10044000A5018C2F0E9450018C2F0E94A5010E94B3
:1004500099017894DF91CF91089580E490E00E9413
:10046000120281E091EA0E94120280E490E00E9470
:10047000120281E091EA0E94120280E690E00C9460
:100480001202F89480E190E00E9412028AEC8A95B0
:10049000F1F700C080E190E00E9412028AEC8A9598
:1004A000F1F700C080E390E00E9412028AEC8A9586
:1004B000F1F700C087E20E94B3018AEC8A95F1F758
:1004C00000C080E190E00E9412028AEC8A95F1F768
:1004D00000C080E390E00E9412028AEC8A95F1F756
:1004E00000C087E20E94B3018AEC8A95F1F700C050
:1004F00087E20E94B30180EC90E20E94120280E247
:1005000090E00E94120287E20E94B301789480EC8E
:1005100090E00C941202CF93C82FCC2331F080E0EE
:1005200090E10E941202C150F8CF80E690E00E9454
:10053000120280EE90E0CF910C9412020E944102D0
:1005400081E091E20E94120281E091E20E94120297
:1005500081E091E20E94120281E091E20E94120287
:1005600081E091E30E94120281E091E30E94120275
:1005700081EA91E30E94120281E091E30E9412025B
:1005800081E091E30E94120281EA91E30E9412024B
:1005900081E091E30E94120281E091E30E94120245
:1005A00080EC90E00E94120284E00C948B02CF93C6
:1005B000C82FCC2331F080E490E10E941202C15098
:1005C000F8CF80EE90E0CF910C941202CF938091FF
:1005D00003018823A1F083E00E948B028091030134
:1005E0000E941B010E94120282E00E94D70280EC4E
:1005F00090E00E94120280EC90E00E941202809132
:100600000201813099F590910301992361F1809164
:100610000301813091F483E00E948B0281E091E339
:100620000E94120282E00E94D70280EC90E00E94B9
:10063000120280EC90E00E94120281E091E30E949D
:10064000120281E00E948B0283E690E09093070102
:10065000809306018CE38093020180910301815015
:10066000809303015AC08093140157C08091020106
:100670008C3331F481E00E948B0281E591E329C043
:10068000809102018A30E1F080910201CAE06C2F72
:100690000E94280581E0911109C00E948B0280917F
:1006A00002016C2F0E942805815007C00E948B0216
:1006B000809102016C2F0E9428050E941B0109C035
:1006C000809102018A3049F581E00E948B0281E02D
:1006D00091E30E9412028091020190E001976AE08A
:1006E00070E00E9448050E941B010E94120281E0F6
:1006F0000E948B0280EC90E00E94120280EC90E05D
:100700000E94120283E690E0909307018093060115
:1007100080910201815080930201CF9108959091C0
:10072000160181E0892780931601809116018823A4
:1007300039F080EF90E00E94120280EF90E006C056
:1007400080EE90E00E94120280EE90E00C94120283
:100750001F920F920FB60F9211242F933F934F9336
:100760005F936F937F938F939F93AF93BF93CF9339
:10077000DF93EF93FF938091080190910901892BFA
:1007800049F0809108019091090101979093090126
:10079000809308018091060190910701892B49F00F
:1007A0008091060190910701019790930701809332
:1007B000060198B181E0892788B980910A018823D0
:1007C00071F18091060190910701892B41F182E03E
:1007D0000E94D7028091060190910701CAE0D0E003
:1007E000BE010E943405862F0E941B010E94120246
:1007F0008091060190910701BE010E9434050E947C
:100800001B010E94120284E00E948B0280EC90E0A7
:100810000E94120280EC90E00E941202A7C00E9487
:10082000CB008093100180911601882389F180917B
:100830001201882369F110921201809110018F3FFB
:1008400009F494C080911001823061F481E291E357
:100850000E94120280E090E10E94120280EF90E07C
:100860000E94120280911001883061F481E891E3C6
:100870000E94120280E090E10E94120280EF90E05C
:100880000E94120280911001853011F40E948F03A2
:1008900080911201882309F467C0809116018111AB
:1008A00063C010921201809110018F3F09F45EC065
:1008B000809110018A3011F40E949E0280911001F3
:1008C0008B3031F490910A0181E0892780930A01ED
:1008D00080911001813041F480EE90E00E9412027C
:1008E00080EE90E00E94120280911001833011F49A
:1008F0000E94E60280911001843019F481E00E9488
:100900008B0280911001853011F40E948F03809139
:100910001001863019F481E00E94D7028091100105
:10092000873041F481E791E30E94120280EE90E06B
:100930000E94120280911001893041F481E991E313
:100940000E94120280EE90E00E941202809110013B
:10095000811108C081E091E30E94120280EE90E0D4
:100960000E941202459A02C045984098FF91EF916B
:10097000DF91CF91BF91AF919F918F917F916F91B7
:100980005F914F913F912F910F900FBE0F901F904D
:1009900018950C94500178940E946B0087E20E9495
:1009A000B3010E9441020E949E020E9471000E94B7
:1009B000580081E08093030182E08093020111E0FE
:1009C00002E0C4E6D0E088B1812788B980911401A3
:1009D000882361F01092140110920A011093030110
:1009E000009302010E949E0210921701809117014C
:1009F000813079F028F08230B9F08330E1F0E3CF34
:100A000080910A018823F9F2D0930901C09308016B
:100A100016C08091080190910901892BA1F680915F
:100A200017018F5F809317010E94E60280911701E2
:100A30008F5F8093170180911401882331F080919A
:100A400017018F5F80931701BECF10921701BBCFA4
:100A5000991B79E004C0991F961708F0961B881F10
:100A60007A95C9F780950895AA1BBB1B51E107C071
:100A7000AA1FBB1FA617B70710F0A61BB70B881F2E
:100A8000991F5A95A9F780959095BC01CD010895BD
:100A900097FB072E16F4009407D077FD09D00E942B
:100AA000340507FC05D03EF4909581959F4F08953D
:0C0AB000709561957F4F0895F894FFCF7A
:020ABC00010037
:00000001FF
