:100000000C9434000C9451000C9451000C94510049
:100010000C9451000C9451000C9451000C9451001C
:100020000C9451000C9451000C9451000C94EA046F
:100030000C9451000C9451000C9451000C945100FC
:100040000C9451000C9451000C94B0000C9451008D
:100050000C9451000C9451000C9451000C945100DC
:100060000C9451000C94510011241FBECFEFD8E026
:10007000DEBFCDBF11E0A0E0B1E0E4EDF2E102C0EF
:1000800005900D92A230B107D9F721E0A2E0B1E0CE
:1000900001C01D92A634B207E1F70E9450080C94EB
:1000A00068090C940000E6E2F1E0118210821382EC
:1000B0001282158214821782168213861286118686
:1000C000108689E090E090932301809322010895A7
:1000D00080E78AB91BB880E384B908958BE08093E8
:1000E0008100109285001092840084EC99E0909336
:1000F000890080938800EFE6F0E080818360808350
:10010000E6E2F1E0138212821582148217821682CF
:1001100011861086138612860895E0ECF0E080E2E6
:100120008083808180628083E1ECF0E08081886060
:10013000808386E08093C20088E090E09093C500C1
:100140008093C40008959091C00095FFFCCF8093E8
:10015000C6000895E1ECF0E0808180698083089515
:100160001F920F920FB60F9211248F938091C600A9
:10017000809308018091080180588093240181E0D8
:10018000809303018F910F900FBE0F901F901895D1
:1001900091E0909318016130A1F018F0623009F1FC
:1001A00030C08B3061F020F4873059F58AE0089533
:1001B0008D3019F08E3049F124C084E0089587E035
:1001C00008958B3061F020F48730D9F480E00895F1
:1001D0008D3019F08E30D9F014C085E0089588E094
:1001E00008958B3061F020F4873059F48BE0089546
:1001F0008D3019F08E3069F004C086E0089589E0F2
:100200000895109218018FEF089581E0089582E01B
:10021000089583E008958091180181114AC08BB13F
:100220008F788BB983B18F708093170190911701EC
:1002300080912501981729F080911701809325015D
:1002400038C080911501882339F0809117018F30D3
:1002500081F5109215012DC0809117018F3049F161
:1002600060E070E090E18BB180678BB92BB1892F92
:10027000809528232BB92AB182238AB98AB1806755
:100280008AB983B18F7080931701809117018F30E5
:1002900039F4990F6F5F7F4F6330710551F0E3CFF1
:1002A00081E08093150180931801809117010C94CF
:1002B000C8008FEF08958823A9F08130B1F0823013
:1002C000B9F08330C1F08430C9F08530D1F0863088
:1002D000D9F08730E1F08830E9F08930F1F08FEF24
:1002E0009FEF089581E091E3089581E191E30895FE
:1002F00081E291E3089581E391E3089581E491E33C
:10030000089581E591E3089581E691E3089581E7F9
:1003100091E3089581E891E3089581E991E30895D7
:1003200095E09A95F1F7000028E030E087FF02C0E1
:100330002C9A01C02C982D9A880F95E09A95F1F788
:1003400000002D9895E09A95F1F7000021503109B1
:1003500069F72C9885E08A95F1F700002D9A95E0D1
:100360009A95F1F700002D9808952C9885E08A95CC
:10037000F1F700002D9885E08A95F1F700000895C7
:1003800095E09A95F1F70000882311F02C9A01C0AE
:100390002C9885E08A95F1F70000249A95E09A95CB
:1003A000F1F700002D9A85E08A95F1F700002D986D
:1003B00008952C9885E08A95F1F700002D9A85E044
:1003C0008A95F1F700002C9A089595E09A95F1F737
:1003D0000000846088600C94900195E09A95F1F794
:1003E00000000C94E501CF93C82FF8942FEF80EE16
:1003F00090E0215080409040E1F700C000000E9452
:10040000B5018C2F880F0E94900180E20E94ED01BF
:100410008FE39FE10197F1F700C0000080E20E94A6
:1004200090018FE39FE10197F1F700C0000080E3A6
:100430000E94900180E00E94ED019AEC9A95F1F7FC
:1004400000C080E00E94ED0180E00E9490012AEC53
:100450002A95F1F700C080EE0E94ED0180EE0E9427
:1004600090018AEC8A95F1F700C080E00E94ED01CE
:1004700080E00E9490019AEC9A95F1F700C080E626
:100480000E94ED0180E60E9490012AEC2A95F1F786
:1004900000C00E94D90185ED8A95F1F7000078949B
:1004A000CF910895CF93DF93EC01F8940E94B501AA
:1004B0008EE40E9490018D2F0E9490018D2F0E944A
:1004C000E5018C2F0E9490018C2F0E94E5010E9473
:1004D000D9017894DF91CF91089580E490E00E9453
:1004E000520281E091EA0E94520280E490E00E9470
:1004F000520281E091EA0E94520280E690E00C9460
:100500005202F89480E190E00E9452028AEC8A95AF
:10051000F1F700C080E190E00E9452028AEC8A95D7
:10052000F1F700C080E390E00E9452028AEC8A95C5
:10053000F1F700C087E20E94F3018AEC8A95F1F797
:1005400000C080E190E00E9452028AEC8A95F1F7A7
:1005500000C080E390E00E9452028AEC8A95F1F795
:1005600000C087E20E94F3018AEC8A95F1F700C08F
:1005700087E20E94F30180EC90E20E94520280E246
:1005800090E00E94520287E20E94F301789480EC8E
:1005900090E00C945202CF93C82FCC2331F080E02E
:1005A00090E10E945202C150F8CF80E690E00E9494
:1005B000520280EE90E0CF910C9452020F931F9361
:1005C000CF93DF93F89480930A016093090180919F
:1005D0000A018A3068F080910A012AE0622F0E94A5
:1005E0003409082F80910A010E943409192F07C08D
:1005F00080910A016AE00E943409192F00E080917D
:1006000009018A3068F0809109012AE0622F0E9476
:100610003409D82F809109010E943409C92F07C0DD
:10062000809109016AE00E943409C92FD0E00E943C
:10063000810281E091E20E94520281E091E20E94F7
:10064000520281E091E20E94520281E091E20E9416
:100650005202802F0E945B010E945202812F0E9451
:100660005B010E94520281EA91E30E9452028D2FA7
:100670000E945B010E9452028C2F0E945B010E942B
:10068000520281EA91E30E94520281E091E30E94CA
:10069000520281E091E30E94520280EC90E00E94BD
:1006A000520284E00E94CB0289E090E09093230103
:1006B000809322017894DF91CF911F910F9108953B
:1006C0000E94810281E091E20E94520281E091E267
:1006D0000E94520281E091E20E94520281E091E286
:1006E0000E94520281E091E30E94520281E091E374
:1006F0000E94520281EA91E30E94520281E091E35A
:100700000E94520281E091E30E94520281EA91E349
:100710000E94520281E091E30E94520281E091E343
:100720000E94520280EC90E00E94520284E00E94FB
:10073000CB0289E090E090932301809322010895F9
:10074000CF93C82FCC2331F080E490E10E94520275
:10075000C150F8CF80EE90E0CF910C945202CF932D
:1007600080910A01882361F080910901811108C0FC
:1007700080910A01815080930A018CE380930901E2
:1007800080910A018A30A0F483E00E94CB0280911C
:100790000A010E945B010E94520282E00E94A003B3
:1007A00080EC90E00E94520280EC90E00E945202A5
:1007B00080910A018B3060F084E00E94CB0280912E
:1007C0000A01CAE06C2F0E9434090E945B0109C033
:1007D000C0910A01CA30E1F484E00E94CB0281E0BA
:1007E00091E30E94520280910A016C2F0E94340909
:1007F000892F0E945B010E94520282E00E94A003A6
:1008000080EC90E00E94520280EC90E00E94520244
:1008100080910901813009F590911C0191111DC051
:1008200090910A019923B1F081E091E30E94520274
:1008300081E00E94CB0283E690E090930E018093CA
:100840000D018CE38093090180910A01815080930E
:100850000A017CC080931C0179C0809109018C330E
:1008600041F580910A01811106C083E00E94CB020C
:1008700081E091E30BC080910A018823A1F083E01D
:100880000E94CB0280910A010E945B010E945202E9
:1008900082E00E94A00380EC90E00E94520280EC73
:1008A00090E00E94520281E00E94CB0281E591E338
:1008B00029C0809109018A30E1F080910901CAE0E4
:1008C0006C2F0E94340981E0911109C00E94CB0273
:1008D000809109016C2F0E943409815007C00E9449
:1008E000CB02809109016C2F0E9434090E945B01A8
:1008F00009C0809109018A3049F581E00E94CB024C
:1009000081E091E30E9452028091090190E00197F9
:100910006AE070E00E9454090E945B010E9452024A
:1009200081E00E94CB0280EC90E00E94520280ECB9
:1009300090E00E94520283E690E090930E01809333
:100940000D0180910901815080930901CF91089593
:1009500090911E0181E0892780931E0180911E01E4
:10096000882339F080EF90E00E94520280EF90E0FF
:1009700006C080EE90E00E94520280EE90E00C945F
:1009800052020C949001209120018091210130E0CD
:10099000281B310981E090E02F30310514F480E00C
:1009A00090E00895CF93C82F0E94C304892B81F44F
:1009B000E0912001F0E0EA5CFE4FC08380912001CD
:1009C0008F5F80932001809120018F7080932001A0
:1009D000CF9108951F920F920FB60F9211242F936B
:1009E0003F934F935F936F937F938F939F93AF93B7
:1009F000BF93CF93DF93EF93FF93809103018823FD
:100A0000B9F11092030180912401803459F480914E
:100A10000601811107C080910701811103C081E0A7
:100A20008093070180912401833259F4809107015A
:100A3000882339F080910601811103C081E0809301
:100A4000060180910701882399F08091060188238F
:100A500059F0109207011092060183E20E94D2041D
:100A600081E0809305018FC2809124010E94D2040D
:100A700080911A01882309F445C080910F0190915B
:100A80001001892B49F080910F019091100101977D
:100A90009093100180930F0180910D0190910E01B0
:100AA000892B81F180910D0190910E010197909316
:100AB0000E0180930D0182E00E94A00380910D0140
:100AC00090910E01CAE0D0E0BE010E944009862F3D
:100AD0000E945B010E94520280910D0190910E01D3
:100AE000BE010E9440090E945B010E94520284E004
:100AF0000E94CB0280EC90E00E94520280EC90E0D9
:100B00000E9452020E940B018093160180911E01E7
:100B1000882309F468C180911801882309F463C10E
:100B200080911A0181115FC1109218018091160104
:100B30008F3F09F428C280911601823009F097C0D6
:100B400080912201909123010597E9F48091300171
:100B500090913101C29794F48091300190913101CC
:100B60000A969093310180933001809126019091F3
:100B700027010196909327018093260180912601F9
:100B80009091270168C080912201909123010697DE
:100B9000E9F48091300190913101099794F48091AA
:100BA0003001909131010196909331018093300191
:100BB00080912801909129010196909329018093B9
:100BC0002801809128019091290145C0809122013E
:100BD000909123010897E9F480912E0190912F01C3
:100BE000C29794F480912E0190912F010A969093D0
:100BF0002F0180932E0180912A0190912B01019663
:100C000090932B0180932A0180912A0190912B01CE
:100C100022C08091220190912301099741F5809192
:100C20002E0190912F01099794F480912E019091BB
:100C30002F01019690932F0180932E0180912C011A
:100C400090912D01019690932D0180932C0180911C
:100C50002C0190912D010E945B010E94520280E0C4
:100C600090E10E94520280EF90E00E945202809137
:100C70001601853061F40E94A80460912E017091E4
:100C80002F0180913001909131010E94DE0280910C
:100C90001601883009F0A7C08091220190912301AC
:100CA000059721F580913001909131010B97CCF09F
:100CB00080912601909127011816190694F48091CD
:100CC0003001909131010A97909331018093300166
:100CD000809126019091270101979093270180939D
:100CE0002601809126019091270171C080912201F7
:100CF000909123010697F1F4809130019091310198
:100D00001816190694F480913001909131010197E1
:100D100090933101809330018091280190912901B5
:100D20000197909329018093280180912801909147
:100D300029014DC08091220190912301089721F54E
:100D400080912E0190912F010B97CCF080912A0178
:100D500090912B011816190694F480912E01909110
:100D60002F010A9790932F0180932E0180912A01E1
:100D700090912B01019790932B0180932A018091F0
:100D80002A0190912B0123C080912201909123018F
:100D9000099749F580912E0190912F011816190697
:100DA00094F480912E0190912F01019790932F013F
:100DB00080932E0180912C0190912D0101979093A9
:100DC0002D0180932C0180912C0190912D010E9486
:100DD0005B010E94520280E090E10E94520280EF8B
:100DE00090E00E94520280911801882309F4C9C042
:100DF00080911E018111C5C01092180180911601C9
:100E00008F3F09F4C0C0809116018A3011F40E940E
:100E10006003809116018B3081F5809122019091C1
:100E200023010A9744F08091220190912301895077
:100E30000E94CB020EC0809122019091230109975C
:100E4000B4F4209122013091230189E0821B0E9499
:100E5000A00389E090E0909323018093220180EC2D
:100E600090E00E94520280EC90E00E945202909129
:100E70001A0181E0892780931A01809116018091DF
:100E80001601833011F40E94AF0380911601843063
:100E900029F580911A01811121C080912201909140
:100EA00023010697DCF0809122019091230108979D
:100EB00049F482E00E94CB028091220190912301AB
:100EC000029708C081E00E94CB028091220190919C
:100ED00023010197909323018093220180911601B1
:100EE0008530F1F480911A0181111AC0809122019C
:100EF00090912301059791F0809122019091230117
:100F0000069761F08091220190912301089731F0BA
:100F10008091220190912301099711F40E94A80465
:100F200080911601863029F580911A01811121C026
:100F300080912201909123010997DCF48091220194
:100F400090912301069749F482E00E94A0038091CA
:100F5000220190912301029608C081E00E94A00323
:100F60008091220190912301019690932301809317
:100F70002201809116018091160180911601459AF7
:100F800002C045984098FF91EF91DF91CF91BF91BA
:100F9000AF919F918F917F916F915F914F913F9111
:100FA0002F910F900FBE0F901F9018953091210137
:100FB0002091200181E090E0321711F080E090E074
:100FC00008950E94D607892B89F4E0912101F0E071
:100FD000EA5CFE4F8081909121019F5F90932101F7
:100FE000909121019F709093210108958FEF0895B2
:100FF0000E94D607892B19F40E94E107F9CF0895C2
:1010000085E40E94A30082E50E94A30082E50E947D
:10101000A3008FE40E94A30082E50E94A3008AE35C
:101020000E94A30089E60E94A3008EE60E94A3000E
:1010300083E60E94A3008FE60E94A30082E70E943D
:10104000A30082E70E94A30085E60E94A30083E636
:101050000E94A30084E70E94A30080E20E94A300F4
:1010600083E60E94A3008FE60E94A3008DE60E9403
:10107000A3008DE60E94A30081E60E94A3008EE6F5
:101080000E94A30084E60E94A30083E10C94A300C5
:101090001092020110920401109205010C94F807BD
:1010A00078940E9453000E94680087E20E94F30136
:1010B0000E9481020E9460030E946E000E948D00C7
:1010C0000E94AA0011E00AE0C4E6D0E080911C0171
:1010D000882351F010921C0110921A010E946003A3
:1010E00010921F010E94530080910501882309F48A
:1010F00087C010920201109205010E94E1070E9430
:10110000E107843219F4109304012DC0853259F59A
:1011100010931A010E94F80726C0809102018430C2
:10112000E8F50E94E107F82E0E94A30080ED8F0DE4
:101130008A3088F5E0910201F0E0EE5CFE4FF0822B
:10114000809102018F5F80930201809102018430BF
:1011500019F40E94E107F82E809102018530D8F43D
:1011600083E2F81629F0809104018111D6CF48C09E
:10117000209132019091330130E020533109029FD8
:10118000A001039F500D1124892F90E0C097840F78
:10119000951FCD972CF00E94000830C0F12CD5CFC0
:1011A000209134019091350130E020533109029FA4
:1011B000A001039F500D1124892F90E0C097840F48
:1011C000951FCD9744F720913401309135019091CE
:1011D000320140913301220F2056622F660F660FB5
:1011E000620F3053630F990F9056892F880F880F25
:1011F000890F20ED240F820F0E94DE020E94480812
:1012000080911F01813081F028F08230C9F0833055
:10121000F1F05CCF80911A01882309F457CFD09365
:101220001001C0930F0117C080910F019091100120
:10123000892B09F04BCF80911F018F5F80931F0195
:101240000E94AF0380911F018F5F80931F018091E7
:101250001C01882331F080911F018F5F80931F0153
:1012600035CF10921F0132CF991B79E004C0991F2E
:10127000961708F0961B881F7A95C9F780950895F0
:10128000AA1BBB1B51E107C0AA1FBB1FA617B707AC
:1012900010F0A61BB70B881F991F5A95A9F78095C8
:1012A0009095BC01CD01089597FB072E16F400948C
:1012B00007D077FD09D00E94400907FC05D03EF415
:1012C000909581959F4F0895709561957F4F0895F2
:0412D000F894FFCFC0
:0212D400010017
:00000001FF
