:100000000C9472000C9489000C9489000C94890063
:100010000C9489000C9489000C9489000C9489003C
:100020000C9489000C9489000C9489000C9489002C
:100030000C9489000C9489000C9489000C9489001C
:100040000C9489000C9489000C9489000C9489000C
:100050000C9489000C9489000C9489000C948900FC
:100060000C9489000C9489000C9489000C948900EC
:100070000C9489000C9489000C9489000C948900DC
:100080000C9489000C9489000C9489000C948900CC
:100090000C9489000C9489000C9489000C948900BC
:1000A0000C9489000C9489000C9489000C948900AC
:1000B0000C9489000C9489000C9489000C9489009C
:1000C0000C9489000C9489000C9489000C9489008C
:1000D0000C9489000C9489000C9489000C9489007C
:1000E0000C94890011241FBECFEFD1E2DEBFCDBF3B
:1000F00012E0A0E0B2E0E6E8F1E000E00BBF02C0F1
:1001000007900D92AA30B107D9F70E948B000C948A
:10011000C1000C940000CF93DF93CDB7DEB72A97D0
:100120000FB6F894DEBF0FBECDBF8AE0E0E0F2E08C
:10013000DE01119601900D928A95E1F78FEF87B954
:1001400018B883E081B912B880E031E092E032B9AA
:1001500021E0280FE1E0F0E0EC0FFD1FE80FF11DBA
:100160008081809588B9822F8F702FEF41EE54E007
:10017000215040405040E1F700C0000018B892B94B
:06018000E6CFF894FFCF6A
:0A018600029E240C9848401E000859
:00000001FF
