:100000000C9472000C947C000C947C000C947C008A
:100010000C947C000C947C000C947C000C947C0070
:100020000C947C000C947C000C947C000C947C0060
:100030000C947C000C947C000C947C000C947C0050
:100040000C947C000C947C000C947C000C947C0040
:100050000C947C000C947C000C947C000C947C0030
:100060000C947C000C947C000C947C000C947C0020
:100070000C947C000C947C000C947C000C947C0010
:100080000C947C000C947C000C947C000C947C0000
:100090000C947C000C947C000C947C000C947C00F0
:1000A0000C947C000C947C000C947C000C947C00E0
:1000B0000C947C000C947C000C947C000C947C00D0
:1000C0000C947C000C947C000C947C000C947C00C0
:1000D0000C947C000C947C000C947C000C947C00B0
:1000E0000C947C0011241FBECFEFD1E2DEBFCDBF48
:1000F0000E947E000C9495000C9400008FEF8AB94A
:100100008BB981E09EEF880F282F20952BB98111A4
:1001100002C09BB981E02FEF33ED40E32150304026
:0E0120004040E1F700C00000EECFF894FFCFA2
:00000001FF
